:100000000C9460030C94DD0B0C947D030C947D0325
:100010000C947D030C947D030C947D030C947D0360
:100020000C947D030C947D030C947D030C947D0350
:100030000C947D030C947D030C947D030C947D0340
:100040000C947D030C947D030C947D030C947D0330
:100050000C947D030C947D030C947D030C947D0320
:100060000C947D030C947D030C947D030C947D0310
:1000700000000000005C00000C000C007C287C28C4
:1000800058DC68002410480028542840000C000068
:10009000007884008478000054385400107C1000EC
:1000A00080400000101010000040000060100C00A4
:1000B00038543800487C40004864580044542C00B0
:1000C0001C107C005C5424003854240064140C0080
:1000D00068542C0048543800004800008048000054
:1000E0001028440028282800442810000454080040
:1000F00038445C00781478007C5428003844280088
:100100007C4438007C5444007C140400384474005F
:100110007C107C00447C440020403C007C106C003F
:100120007C4040007C187C0078103C00384438004B
:100130007C1408003844B8007C146800485424003B
:10014000047C04007C407C003C603C007C307C00F3
:100150006C106C000C700C0064544C00007C44006B
:100160000C106000447C00000804080080808000BF
:1001700000040800304878007C48300030484800CF
:1001800030487C00306850001078140090A8780047
:100190007C08700050744000808074007C106800FF
:1001A000447C4000781078007808700030483000B7
:1001B000F82810003048F80078100800505828003F
:1001C000083C4800384078003840380078207800F3
:1001D0004830480098A0780048685800107884009B
:1001E000007C00008478100008040804000000006F
:1001F0000000005F00000007000700147F147F1458
:10020000242A7F2A1223130864623649552250009B
:1002100005030000001C2241000041221C00082AA6
:100220001C2A0808083E080800503000000808088A
:100230000808006060000020100804023E51494593
:100240003E00427F400042615149462141454B31C9
:100250001814127F1027454545393C4A4949300159
:10026000710905033649494936064949291E0036B0
:100270003600000056360000000814224114141401
:10028000141441221408000201510906324979412F
:100290003E7E1111117E7F494949363E414141223E
:1002A0007F4141221C7F494949417F090901013EA3
:1002B000414151327F0808087F00417F41002040C2
:1002C000413F017F081422417F404040407F0204AB
:1002D000027F7F0408107F3E4141413E7F090909AA
:1002E000063E4151215E7F09192946464949493157
:1002F00001017F01013F4040403F1F2040201F7F00
:100300002018207F631408146303047804036151E8
:1003100049454300007F4141020408102041417FCC
:100320000000040201020440404040400001020479
:100330000020545454787F4844443838444444207E
:10034000384444487F3854545418087E0901020840
:100350001454543C7F0804047800447D400020403D
:10036000443D00007F10284400417F40007C041879
:1003700004787C0804047838444444387C14141409
:1003800008081414187C7C080404084854545420A9
:10039000043F4440203C4040207C1C2040201C3C2A
:1003A0004030403C44281028440C5050503C446499
:1003B000544C44000836410000007F0000004136E4
:1003C000080002010302010000000000000000001C
:1003D000065F5F0600000000070700070700001423
:1003E0007F7F147F7F1400242E6B6B3A120000462F
:1003F0006630180C666200307A4F5D377A48000428
:1004000007030000000000001C3E634100000000E4
:1004100041633E1C000000082A3E1C1C3E2A0808BE
:10042000083E3E0808000000A0E060000000000850
:100430000808080808000000006060000000006074
:1004400030180C060301003E7F594D7F3E000042EC
:10045000427F7F40400000627359496F660000226E
:100460006349497F360000181C16137F7F10002750
:100470006745457D3900003C7E4B497930000003DB
:100480006371190F070000367F49497F3600000667
:100490004F49693F1E000000006C6C000000000026
:1004A000A0EC6C00000000081C3663410000001442
:1004B00014141414140000004163361C08000002D8
:1004C0000351590F0600003E7F415D5D1F1E007CF9
:1004D0007E13137E7C0000417F7F49497F36001CDC
:1004E0003E634141632200417F7F41637F1C0041A5
:1004F0007F7F495D416300417F7F491D0103001CEF
:100500003E6341517372007F7F08087F7F000000C7
:10051000417F7F41000000307040417F3F0100413A
:100520007F7F081C776300417F7F41406070007FC0
:100530007F060C067F7F007F7F060C187F7F001CE4
:100540003E6341633E1C00417F7F49090F06001E48
:100550003F21717F5E0000417F7F19396F46002681
:10056000674D597B32000003417F7F410300007FCC
:100570007F40407F7F00001F3F60603F1F00007F83
:100580007F3018307F7F0063771C081C776300077B
:100590004F78784F0700006773594D47637100002B
:1005A0007F7F41410000000103060C18306000000D
:1005B00041417F7F000000080C0603060C08008004
:1005C000808080808080800000030704000000207D
:1005D0007454543C784000413F7F44447C38003898
:1005E0007C44446C280000307848493F7F40003804
:1005F0007C54545C180000487E7F49030200009838
:10060000BCA4A4F87C0400417F7F08047C7800002F
:10061000447D7D4000000040C484FD7D0000004119
:100620007F7F10386C440000417F7F400000007CD9
:100630007C0C180C7C78007C7C04047C78000038EE
:100640007C44447C38000084FCF8A4243C18001846
:100650003C24A4F8FC8400447C78441C1800004826
:100660005C54547424000000043E7F442400003C89
:100670007C40403C7C40001C3C60603C1C00003CDA
:100680007C6030607C3C00446C3810386C44009CCA
:10069000BCA0A0FC7C00004C64745C4C64000008AE
:1006A000083E7741410000000000777700000041DC
:1006B00041773E0808000002030103020301000025
:1006C00011241FBECFEFD4E0DEBFCDBF13E0A0E00A
:1006D000B1E0E0EFF3E202C005900D92A834B1075B
:1006E000D9F723E0A8E4B3E001C01D92AF35B2070B
:1006F000E1F70E947F030C94F6110C940000CF9355
:10070000DF93CDB7DEB728970FB6F894DEBF0FBEE4
:10071000CDBF2FEF8FE797E0215080409040E1F769
:1007200000C000008FE190E00E94B10367EC73E02D
:1007300088EB93E00E944B0D0E94F1030E94BB04E2
:100740000E946D070E94BC070E94CA0A0E94AE0A5E
:10075000CE0101960E942606CE0101960E940F0747
:10076000FBCF90BD89B988E18AB98EE880BD089534
:10077000CF93C82F8A3039F05D9BFECFCCB990E083
:1007800080E0CF9108958DE00E94B803F5CF5F9B84
:10079000FECF8CB190E0089582E086B987B991E0F0
:1007A0009BBB2FE73AE196E0215030409040E1F7C3
:1007B00000C0000017B82FE73AE196E02150304022
:1007C0009040E1F700C0000095E59BBB2FE73AE1C0
:1007D00096E0215030409040E1F700C0000087B91A
:1007E000089585B7806885BF80B7806280BF08950F
:1007F000CF92DF92EF92FF920F931F93CF93DF93ED
:100800008AE091E00E94AC0D0E943B0D6C010E94B9
:10081000400DD0E0C0E010E000E00F2EF1E2EF2E3E
:10082000F1E0FF2EF02D05C02196C11598E0D90703
:10083000F1F00E943B0DFE01F85E808320812817B5
:1008400099F399279F938F931F922F93DF93CF93C1
:10085000FF92EF920E94960D0F5F1F4F8DB79EB7CC
:1008600008960FB6F8949EBF0FBE8DBFDDCFC601B0
:100870000E94400DD0E0C0E0F12CE12C0F2EFBE5F2
:10088000CF2EF1E0DF2EF02D05C02196C11598E0A6
:10089000D907F1F00E943B0DFE01F85E2081281778
:1008A000A1F399279F938F931F922F93DF93CF9359
:1008B000DF92CF920E94960D8FEFE81AF80A8DB75B
:1008C0009EB708960FB6F8949EBF0FBE8DBFDDCFC2
:1008D000FF92EF921F930F9389E991E09F938F937B
:1008E0000E94960D0F900F900F900F900F900F9009
:1008F000DF91CF911F910F91FF90EF90DF90CF90FC
:100900000895CF93DF9386EF91E00E94AC0DC0E095
:10091000D0E185EA8883E7E9FAE33197F1F700C08F
:100920000000A096C115F8E1DF07A1F780E192E091
:100930000E94AC0D8EE192E00E94AC0D85EA8883A6
:10094000E7E9FAE33197F1F700C00000A096C1157E
:10095000F0E2DF07A1F789E392E00E94AC0D2FE5FA
:100960008AEE90E0215080409040E1F700C0000006
:10097000DF91CF9108958D9A8FB581608FBD8EB52F
:1009800088608EBD8FB580688FBD8FB58F7B8FBD22
:100990008EB581608EBD8FE790E09BBD8ABDB89813
:1009A000C0980895FC01A0E0B0E11C928C9190E009
:1009B000938382838091011090E091838083809162
:1009C000031090E0978386838091021090E09583D6
:1009D00084830895CF92DF92EF92FF920F931F933B
:1009E000CF93DF93CDB7DEB728970FB6F894DEBF6D
:1009F0000FBECDBF7C016B018A01CE0101960E9422
:100A0000D2042B813C812C153D050CF452C02C19CD
:100A10003D0944E6429FC001439F900D112468EFB9
:100A200070E06C197D09161617060CF03FC00E9485
:100A3000860CF8017383628329813A812E153F0564
:100A40000CF453C02E193F0944E6429FC001439F56
:100A5000900D112465EF70E06E197F0916161706C8
:100A60000CF040C00E94860CF801718360838D8178
:100A70009E81F801958384838F81988597838683EF
:100A800080819181853691050CF448C084E690E020
:100A900091838083F80182819381853691050CF4DE
:100AA00047C084E690E0938382834AC061E070E0AF
:100AB000BECFC601821B930B9C014CE94203C001CF
:100AC000439F900D1124B601635471091616170641
:100AD00034F40E94860CF80173836283ADCF61E029
:100AE00070E0F7CF61E070E0BDCFC701821B930BD0
:100AF0009C014CE94203C001439F900D1124B701B2
:100B0000675471091616170634F40E94860CF80112
:100B100071836083ACCF61E070E0F7CF8C399F4F79
:100B20000CF0B8CF8CE99FEFF80191838083B2CFAE
:100B30008C399F4F2CF48CE99FEFF80193838283CB
:100B400028960FB6F894DEBF0FBECDBFDF91CF91D0
:100B50001F910F91FF90EF90DF90CF900895FC01CF
:100B60002281338123333105ECF42E3CFFEF3F0724
:100B700024F1FC0180819181833391054CF58E3CF9
:100B8000FFEF9F0784F120313105DCF5213F3F4F16
:100B9000DCF180319105DCF5813F9F4F7CF590E0E1
:100BA00080E0089588E492E09F938F930E94960DD1
:100BB0000F900F9082E090E008958BE492E09F9375
:100BC0008F930E94960D0F900F9083E090E0089510
:100BD00080E592E09F938F930E94960D0F900F9067
:100BE00081E090E0089586E592E09F938F930E94C4
:100BF000960D0F900F9090E080E0089584E090E0D3
:100C0000089582E090E0089583E090E0089581E007
:100C100090E00895FC01228133812333310574F47F
:100C20002E3C3F4F6CF0FC01808191818333910514
:100C30004CF48E3C9F4F44F080E3089583E3089585
:100C400084E3089582E3089581E308954F925F92CB
:100C50006F927F928F929F92AF92BF92CF92DF92CC
:100C6000EF92FF920F931F93CF93DF93CDB7DEB731
:100C700028970FB6F894DEBF0FBECDBF4C0104E637
:100C800010E0412C512C3201F12CE12CD12CC12C43
:100C9000B12CA12CCE0101960E94D20483EC99E0E4
:100CA0000197F1F700C0000089819A81A80EB91E52
:100CB0008B819C81C80ED91E8D819E81E80EF91E04
:100CC0008F819885092E000CAA0BBB0B480E591E6C
:100CD0006A1E7B1E01501109E9F6E3ECF9E0319739
:100CE000F1F700C0000024E630E0C501B9010E9420
:100CF000860CF40171836083C601B9010E94860CE1
:100D000073836283C701B9010E94860C7583648373
:100D1000C301B20124E630E040E050E00E949A0CAA
:100D2000F4013783268383EC99E00197F1F700C043
:100D3000000028960FB6F894DEBF0FBECDBFDF913E
:100D4000CF911F910F91FF90EF90DF90CF90BF90C8
:100D5000AF909F908F907F906F905F904F9008958D
:100D60000F931F93CF93DF93CDB7DEB763970FB683
:100D7000F894DEBF0FBECDBF8C01DC0112966D91E1
:100D80007C911397AE014F5F5F4F8D919C910E94B4
:100D9000EA04E3ECF9E03197F1F700C00000D80174
:100DA00012964D915C9113976D917C91CE010196B5
:100DB0000E940A06FE013D9697E0DF011D929A957A
:100DC000E9F723E430E03A87298791E09B878C8715
:100DD00060E0CE0109960E94D40A8C85282F082E47
:100DE000000C330B3F938F938BE592E09F938F938F
:100DF0000E94960DE7EAF1E63197F1F700C0000096
:100E00000F900F900F900F9063960FB6F894DEBF7F
:100E10000FBECDBFDF91CF911F910F9108950F931A
:100E20001F93CF93DF93CDB7DEB763970FB6F894D8
:100E3000DEBF0FBECDBFDC0112966D917C91139782
:100E4000AE014F5F5F4F8D919C910E94EA04E3ECED
:100E5000F9E03197F1F700C00000FE013D9687E010
:100E6000DF011D928A95E9F783E490E09A878987EC
:100E700082E08B8789818C598C878B818C598D87F7
:100E800060E0CE0109960E94D40A8C85282F082E96
:100E9000000C330B3F938F9306E612E01F930F93E2
:100EA0000E94960D8D85282F082E000C330B3F9342
:100EB0008F931F930F930E94960D0FB6F894DEBF89
:100EC0000FBECDBF63960FB6F894DEBF0FBECDBF89
:100ED000DF91CF911F910F91089587B38A6187BBEE
:100EE00088B38A6188BBBD9ABF9ABE988DB1837F53
:100EF0008DB98DB181658DB908958FB9779BFECF7E
:100F000008958FB9779BFECF8FB108958FEF8FB97A
:100F1000779BFECF8FB108959C014423E9F0FB013C
:100F2000DC014150CB010196480F592F511D8FEF25
:100F300005C031961196E417F50771F0982F211529
:100F4000310509F09C919FB9779BFECF6115710522
:100F500081F39FB19083EDCF089598B39A6198BBC8
:100F600098B321E030E002C0220F331F8A95E2F7E8
:100F70002095292328BB089588B38A6188BB0895EA
:100F80000895FF920F931F93CF93DF93009709F477
:100F900053C0EC0184E00E94AD0784E00E94810709
:100FA0008AE18A95F1F700C080E00E948107F82E5F
:100FB00083E08A95F1F7000080E00E948107082F06
:100FC00083E08A95F1F7000080E00E948107182FE6
:100FD0000E94BC078881F0FA80F9F1FA81F9F2FAEF
:100FE00082F9F3FA83F9F4FA84F9F5FA85F988833A
:100FF000998100FB90F901FB91F902FB92F903FB47
:1010000093F904FB94F905FB95F906FB96F999838E
:101010008A8114FB84F912FB82F913FB83F911FB1B
:1010200081F910FB80F98A8390E080E0DF91CF9115
:101030001F910F91FF9008958FEF9FEFF7CFCF9300
:10104000C82FC29883E00E94AD078C2F0E947D07B5
:101050000E94BC07CF910895806B0E941F080895DD
:10106000CF93C82F8F700E941F088C2F82958F708E
:1010700080610E941F08CF910895CF93C62F0E94D0
:101080002C088C2F0E943008CF91089560E080E0FA
:101090000E943D080895CF93C82FC29A83E00E9412
:1010A000AD0789EF90E00197F1F700C000008C2FA9
:1010B0000E947D070E94BC07CF910895CF93DF93D4
:1010C0000E944608D0E08D2F0E942C08C0E080E0EE
:1010D0000E944B08CF5FC038D1F7DF5FD83099F757
:1010E000DF91CF910895BA9A8EEA0E941F0881EA93
:1010F0000E941F0888EC0E941F0880E20E941F08BF
:1011000082E00E941F088FEA0E941F080E945E086A
:101110000E9446080895CF930E942C0880E00E9408
:101120003008C0E08C2F0E94300880E00E944B08FD
:10113000CF5FC038B9F7CF9108950F931F93CF9326
:10114000DF938032D4F0C82F0C2E000CDD0BA0975B
:10115000CE01880F991F880F991FC0E7D0E0C80FF4
:10116000D92FD11D8E010C5F1F4FFE0184910E946B
:101170004B082196C017D107C1F7DF91CF911F917E
:101180000F910895CF93DF93EC018881882331F08C
:1011900021960E949D0889918111FBCFDF91CF910B
:1011A0000895CF93DF93D82FC0E06EE68C2F0E9476
:1011B0003D08DC1749F080E20E949D08CF5FC430F3
:1011C000A1F7DF91CF9108958CE30E949D08F6CF9F
:1011D000B8980E94460887E792E00E94C20860E043
:1011E00081E00E943D088EE792E00E94C20860E024
:1011F00082E00E943D0885E892E00E94C20860E01B
:1012000083E00E943D088CE892E00E94C2080895A5
:101210008F929F92AF92BF92CF92DF92EF92FF9206
:101220000F931F93CF93DF93CDB7DEB728970FB6F9
:10123000F894DEBF0FBECDBF082FE62E80E00E94DF
:10124000D108D12CF12C10E099249394812C0F2EED
:10125000F7E9AF2EF2E0BF2EF02D1EC083E992E039
:101260000E94AC0D83EC99E00197F1F700C00000FB
:1012700092E09D1508F0D3941F92DF92BF92AF9237
:101280000E94960D8D2D0E94D1080F900F900F9007
:101290000F90C82C01C0C92CB09B2BC0AE014F5F72
:1012A0005F4FB701C8010E94EA0483EC99E00197FF
:1012B000F1F700C00000A701B801CE0101960E941D
:1012C000AF05E3ECF9E03197F1F700C0000084309E
:1012D000910509F3CC2001F38330910509F4BECFC9
:1012E0000297D1F6D110DA948D2D0E94D108C82C26
:1012F000D3CF8D2D28960FB6F894DEBF0FBECDBF8D
:10130000DF91CF911F910F91FF90EF90DF90CF90E1
:10131000BF90AF909F908F900895CF93C82FC198A2
:1013200083E00E947D078C2F0E947D070E94860724
:10133000C19ACF910895CF93DF93D82FC62FC1982C
:1013400082E00E947D078D2F0E947D078C2F0E94D6
:101350007D07C19ADF91CF910895833091057CF488
:10136000C198009739F08130910551F0029719F436
:1013700024E801C021E8822F0E947D07C19A0895C8
:1013800022E8F9CF1F93CF93DF93182FD62FC42FC6
:10139000C19885E00E947D07812F0E947D078D2FD7
:1013A0000E947D078C2F0E947D07C19ADF91CF910B
:1013B0001F910895C19880EC0E947D07C19A0895FD
:1013C000CF930E94DA0987EA91E60197F1F700C00E
:1013D00000008EE00E948D09C82F83EC99E00197F0
:1013E000F1F700C000001F92CF9385EA92E09F932F
:1013F0008F930E94960DC07E0F900F900F900F90CC
:10140000C03839F082EC92E00E94AC0D81E0CF91BF
:10141000089560E680E60E949B0960E680E70E94EE
:101420009B0960E082E00E949B0980E0F0CFC198B8
:1014300080EA0E947D070E948607C19A0895482F7E
:1014400060EE8FE00E94C20908951F93CF93DF934F
:101450000E94E00987EA91E60197F1F700C00000D9
:1014600063E08AE20E949B0960E989E20E949B098D
:1014700062E088E20E949B0960E680E60E949B0988
:1014800060E680E70E949B0940E06FEF8CE20E94DB
:10149000C20940E160E18FE00E94C20980E30E943E
:1014A0008D0983FDFBCF80E40E948D0983FDF6CF7B
:1014B00080E50E948D0983FDF1CF40E060E18FE07F
:1014C0000E94C2098CE20E948D09182F80FD1EC067
:1014D00011FD30C060E081E30E949B0960E082E37F
:1014E0000E949B0960E085E30E949B0965E08BE216
:1014F0000E949B0980E40E941F0A40E06FEF8CE28B
:101500000E94C209DF91CF911F91089585E60E9444
:101510008D098F7049F0D6E6D80FC6E68C2F0E9451
:101520008D09CF5FDC13FACF40E061E08CE20E94CE
:10153000C209CECF85E70E948D098F7049F0D6E7AA
:10154000D80FC6E78C2F0E948D09CF5FDC13FACF2E
:1015500040E062E08CE20E94C209BCCF0E94E00938
:1015600087EA91E60197F1F700C0000061E088E2A8
:101570000E949B0965EB89E20E949B0963E48AE271
:101580000E949B096FE38BE20E949B0980E00E940E
:101590001F0A08958A98929A85B7826085BF8BB793
:1015A00080648BBF78940895EF92FF920F931F93FE
:1015B000CF93DF937C01062F162F1295107FFC012D
:1015C0006081718176956795769567957695679533
:1015D00081E3810F0E949B09F70160816295660F8C
:1015E000607E82E3810F0E949B09F701D281DF7048
:1015F0006D2F85E3810F0E949B09DD2399F0F3E0B5
:10160000EF0EF11CC6E3C10FDB5CD10F125CF701DA
:1016100061917F018C2F0E949B09CD1719F0CF5F3C
:10162000C113F5CF802F90E00E94AD09DF91CF91DB
:101630001F910F91FF90EF900895EF92FF920F93FB
:101640001F93CF93DF938C01E62EF62EFF0CFF0C39
:10165000FF0CFF0CFC016081718176956795769592
:1016600067957695679581E48F0D0E949B09F80137
:1016700060817181660F771F62957295707F762702
:10168000607F7627607E7F7182E48F0D0E949B09C8
:10169000F801D281DF706D2F85E48F0D0E949B09C8
:1016A000DD2399F00D5F1F4FC6E4CF0DDB5BDF0D2F
:1016B000FEE4FF0EF80161918F018C2F0E949B09BF
:1016C000CD1719F0CF5FCF11F5CF8E2D90E00E948E
:1016D000AD09DF91CF911F910F91FF90EF90089589
:1016E0000F931F93CF938C01C62F1F926F9384EF9C
:1016F00092E09F938F930E94960D81E00E94AD0728
:1017000084E28C0F880F880F0E947D070E94860755
:10171000C82F0E9486078C2F90E0880F991F880F92
:10172000991F880F991FC295C695C7708C2BF80119
:10173000918380830E9486070E9486070E94860705
:101740008F70F80182830F900F900F900F90882375
:1017500061F0C0E00E948607F801EC0FF11D838361
:10176000CF5FF8018281C817A8F3F801E80FF11DD7
:1017700013820E94BC0782E193E00E94B803C80173
:1017800003969F938F93F80182811F928F9381819B
:101790008F9380818F9386E293E09F938F930E9433
:1017A000960D8DB79EB708960FB6F8949EBF0FBEE4
:1017B0008DBFCF911F910F9108951F920F920FB679
:1017C0000F9211248F9381E0809354038F910F9097
:1017D0000FBE0F901F901895AF92BF92CF92DF92DD
:1017E000EF92FF920F931F93CF93DF93CDB7DEB7A6
:1017F0002B970FB6F894DEBF0FBECDBF8091540378
:10180000811111C02B960FB6F894DEBF0FBECDBF6D
:10181000DF91CF911F910F91FF90EF90DF90CF90CC
:10182000BF90AF900895109254038CE20E948D09EE
:10183000082F80FD0AC002FD48C001FFE3CF40E051
:1018400062E08CE20E94C209DDCF81E60E948D0930
:10185000C82E82E60E948D09D12CCC0CDD1CCC0C4C
:10186000DD1CCC0CDD1C829586958770C82A85E628
:101870000E948D098F70A82E99F07E0184E0E80EF9
:10188000F11C0F2EF6E6BF2EF02DBA0C16E6812FB6
:101890000E948D09F70181937F011F5F1B11F7CF14
:1018A00040E061E08CE20E94C209DA82C982AB8228
:1018B0008BE0FE013196A8E4B3E001900D928A9589
:1018C000E1F781E080935303B6CF40E064E08CE21F
:1018D0000E94C209B2CFDC0190915303992359F0C1
:1018E0009BE0E8E4F3E001900D929A95E1F7109205
:1018F000530381E0089580E0089581E00E94AD07E0
:1019000080EC0E947D070E94BC07089597FB072E7C
:1019100016F4009407D077FD09D00E94B90C07FC9B
:1019200005D03EF4909581959F4F089570956195EF
:101930007F4F0895052E97FB1EF400940E94B10C72
:1019400057FD07D00E94CD0C07FC03D04EF40C9439
:10195000B10C50954095309521953F4F4F4F5F4FBB
:10196000089590958095709561957F4F8F4F9F4F0B
:101970000895AA1BBB1B51E107C0AA1FBB1FA617D6
:10198000B70710F0A61BB70B881F991F5A95A9F728
:1019900080959095BC01CD010895A1E21A2EAA1B55
:1019A000BB1BFD010DC0AA1FBB1FEE1FFF1FA2170F
:1019B000B307E407F50720F0A21BB30BE40BF50B0C
:1019C000661F771F881F991F1A9469F76095709595
:1019D000809590959B01AC01BD01CF0108958F9238
:1019E0009F92AF92BF92CF92DF92EF92FF92CF93EE
:1019F000DF93EC01688179818A819B816115710592
:101A00008105910521F464E279ED8BE597E02DE104
:101A100033EF41E050E00E949A0C49015A019B01CA
:101A2000AC01A7EAB1E40E949D116B017C01ACEE10
:101A3000B4EFA50194010E94AB11DC01CB018C0D28
:101A40009D1DAE1DBF1DB7FF03C00197A109B04882
:101A500088839983AA83BB839F77DF91CF91FF907F
:101A6000EF90DF90CF90BF90AF909F908F900895B0
:101A70000E94EF0C089580E091E00E94EF0C089521
:101A8000B0E0A0E08093000190930101A0930201D7
:101A9000B093030108950F931F93CF93DF930097A3
:101AA00059F46115710541F4F0E0E0E0CF01DF91F8
:101AB000CF911F910F9108958B01EC016EE070E0C2
:101AC00081E090E00E94B10FFC01892B69F380E86E
:101AD00083830115110571F01387028781E88383E1
:101AE0008091550390915603892B21F4F09356036E
:101AF000E09355032097D1F2D187C087838182601C
:101B000083838091570390915803892B79F6F09342
:101B10005803E09357038091590390915A03892BFE
:101B200029F6F0935A03E0935903C0CFB0E0A0E048
:101B3000ECE9FDE00C94C011AE014B5F5F4FFA0180
:101B400061917191AF0180915703909158030E9468
:101B5000D70DE2E00C94DC110F931F93CF93DF932A
:101B6000E0915703F09158032381EC0110E000E06D
:101B700021FD08C00FEF1FEF14C00995892B11F04C
:101B80000FEF1FEF89916091570370915803DB01AC
:101B90001896ED91FC918111F0CF8AE00995892B7F
:101BA00049F7C801DF91CF911F910F910895ABE0E4
:101BB000B0E0EDEDFDE00C94B0117C013B018A0139
:101BC000FC0117821682838181FFC8C1CE01019674
:101BD0005C01F7019381F30193FD859193FF81915E
:101BE0003F01882309F453C1853239F493FD85916F
:101BF00093FF81913F01853229F4B70190E00E9463
:101C00000F11E7CF912C212C312CFFE1F31538F087
:101C10008B3211F190F4803209F1833229F137FCD3
:101C20003CC020ED280F2A3050F536FE20C08AE057
:101C3000989E200D1124922E06C08D3291F0803393
:101C400071F7689430F8F30193FD859193FF8191CA
:101C50003F018111DACF21C0689431F8689432F8DD
:101C6000F2CF689433F8EFCF689434F8ECCFEAE021
:101C70002E9E200D1124222E689435F8E4CF8E324A
:101C800029F436FC04C1689436F8DDCF8C3619F49B
:101C9000689437F8D8CF8836B1F2982F9F7D955445
:101CA0009330E0F08336A1F18337C1F1833509F039
:101CB00063C02801F2E04F0E511CF801C080D180B2
:101CC000692D70E036FC02C06FEF7FEFC6010E9405
:101CD000F2104C01689437F882010AC00C5F1F4F64
:101CE000FFE3F98388248394912C6501E89437F805
:101CF00033FE2DC0522C8114910471F5552009F446
:101D000068CFB70180E290E00E940F115A94F6CF9D
:101D1000F801808189830E5F1F4FE4CF2801F2E034
:101D20004F0E511CF801C080D180692D70E036FC47
:101D300002C06FEF7FEFC6010E9404114C018201C7
:101D4000D5CFB70180E290E00E940F112A942814A9
:101D5000190409F0B0F7CECFF60137FC859137FEB4
:101D600081916F01B70190E00E940F1151105A94B8
:101D7000F1E08F1A9108BFCF843619F0893609F047
:101D800077C0F80137FE6BC06081718182819381D9
:101D90000C5F1F4FF32DFF763F2E97FF09C09095E4
:101DA0008095709561957F4F8F4F9F4F689437F85E
:101DB0002AE030E0A5010E943F11C82ECA188C2CE1
:101DC000432C36FE0CC0E89440F8C91440F434FEAD
:101DD00005C032FC03C0F32DFE7E4F2E892C44FE3D
:101DE00095C0FE01EC0DF11D8081803309F087C0A4
:101DF000242D297E422E842D8870582E43FC95C0B8
:101E000040FE8FC09C2C821418F42C0C922C981835
:101E100044FE91C0B70180E390E00E940F1142FEA2
:101E200009C088E790E041FE02C088E590E0B70174
:101E30000E940F11C91408F48AC0CA94D12C9FEFD4
:101E4000C91AD90ACA0CDB1CF60182916F01B701CD
:101E500090E00E940F11AC14BD04B1F74FCF608128
:101E60007181072E000C880B990B0E5F1F4F92CFCC
:101E7000D32CE894D4F82AE030E0853739F1232DCB
:101E8000297FD22E8F3601F148F48835A9F0F70169
:101E9000868197812B96E2E10C94CC11803749F032
:101EA0008837A9F7D4FE02C06894D2F820E130E068
:101EB0000DC06894D4F8F6CF34FE03C0822F86603C
:101EC000D82E20E132E002C028E030E0F801D7FE51
:101ED0000FC060817181828193810C5F1F4FA501CA
:101EE0000E943F11C82ECA183D2CE89437F867CFDE
:101EF0006081718190E080E00E5F1F4FF0CF42FC67
:101F000002C0839478CF8394839475CF842D867890
:101F100009F471CFF6CFB70180E290E00E940F1173
:101F200083948214C0F3512C73CF522C581882140E
:101F300008F46ECFF8CF842D867809F47BCF8BE23E
:101F400041FE80E247FC8DE2B70190E071CFB7011E
:101F500080E390E00E940F119A946CCF8FEF9FEF77
:101F600099CF0F931F93CF93DF93869F8001879F15
:101F7000100D969F100D1124C8010E94CD0FEC0189
:101F8000009729F0A80170E060E00E94FD10CE01EA
:101F9000DF91CF911F910F9108950F931F93CF93CE
:101FA000DF938230910510F482E090E0E0915D03D0
:101FB000F0915E0330E020E0B0E0A0E0309799F4CB
:101FC0002115310509F44AC0281B390B243031058D
:101FD000D8F58A819B816115710589F1FB01938395
:101FE0008283FE0111C04081518102811381481713
:101FF0005907E0F04817590799F4109761F01296C5
:102000000C93129713961C933296CF01DF91CF91C8
:102010001F910F91089500935D0310935E03F4CF19
:102020002115310551F04217530738F0A901DB01A2
:102030009A01BD01DF01F801C1CFEF01F9CF909303
:102040005E0380935D03CDCFFE01E20FF31F81930A
:1020500091932250310939832883D7CF20915B0394
:1020600030915C03232B41F420910601309107014C
:1020700030935C0320935B032091040130910501B0
:102080002115310541F42DB73EB74091080150911B
:102090000901241B350BE0915B03F0915C03E2170F
:1020A000F307A0F42E1B3F0B2817390778F0AC017B
:1020B0004E5F5F4F2417350748F04E0F5F1F509358
:1020C0005C0340935B03819391939FCFF0E0E0E04A
:1020D0009CCFCF93DF930097E9F0FC0132971382F6
:1020E0001282A0915D03B0915E03ED0130E020E02B
:1020F0001097A1F420813181820F931F20915B03FF
:1021000030915C032817390709F061C0F0935C0334
:10211000E0935B03DF91CF910895EA01CE17DF07CB
:10212000E8F54A815B819E0141155105B1F7E9014E
:10213000FB83EA8349915991C40FD51FEC17FD0722
:1021400061F4808191810296840F951FE901998342
:102150008883828193819B838A83F0E0E0E01296FA
:102160008D919C9113970097B9F52D913C91119702
:10217000CD010296820F931F20915B0330915C0387
:102180002817390739F6309751F510925E031092EF
:102190005D03B0935C03A0935B03BCCFD383C28386
:1021A00040815181840F951FC817D90761F44E5F94
:1021B0005F4F88819981480F591F518340838A81DD
:1021C0009B81938382832115310509F0B0CFF09371
:1021D0005E03E0935D039ECFFD01DC01C0CF13825F
:1021E0001282D7CFFC010590615070400110D8F7E2
:1021F000809590958E0F9F1F0895DC0101C06D930F
:1022000041505040E0F70895FC016150704001904A
:102210000110D8F7809590958E0F9F1F08950F930A
:102220001F93CF93DF93182F092FEB018B8181FD33
:1022300009C01FEF0FEF812F902FDF91CF911F91DA
:102240000F91089582FF14C02E813F818C819D8162
:10225000281739073CF4E881F981CF010196998369
:10226000888310838E819F8101969F838E83E3CF25
:10227000E885F985812F0995892BA1F3DACFFA0139
:10228000AA27283051F1203181F1E8946F936E7FB5
:102290006E5F7F4F8F4F9F4FAF4FB1E03ED0B4E0A6
:1022A0003CD0670F781F891F9A1FA11D680F791FE7
:1022B0008A1F911DA11D6A0F711D811D911DA11DF8
:1022C00020D009F468943F912AE0269F1124301908
:1022D000305D3193DEF6CF010895462F4770405DA3
:1022E0004193B3E00FD0C9F7F6CF462F4F70405D52
:1022F0004A3318F0495D31FD4052419302D0A9F7AD
:10230000EACFB4E0A6959795879577956795BA95A6
:10231000C9F700976105710508959B01AC010A2E6C
:1023200006945795479537952795BA95C9F7620F43
:10233000731F841F951FA01D08950E94E711A59F7C
:10234000900DB49F900DA49F800D911D11240895B0
:10235000B7FF0C949D110E949D11821B930B089551
:102360002F923F924F925F926F927F928F929F92A5
:10237000AF92BF92CF92DF92EF92FF920F931F9393
:10238000CF93DF93CDB7DEB7CA1BDB0B0FB6F89444
:10239000DEBF0FBECDBF09942A88398848885F8484
:1023A0006E847D848C849B84AA84B984C884DF80F5
:1023B000EE80FD800C811B81AA81B981CE0FD11DD9
:1023C0000FB6F894DEBF0FBECDBFED010895A29FFA
:1023D000B001B39FC001A39F700D811D1124911DF9
:1023E000B29F700D811D1124911D0895F894FFCFA7
:1023F0000100000000005F032000537461727469E3
:102400006E67205352414D20746573742E2E2E0D2D
:102410000057726974652070686173652065727217
:102420006F723A206578745F72616D5B2534645D0C
:10243000203D2025303258202873686F756C642049
:1024400062652025303258290D0A00526574726980
:102450006576616C207068617365206572726F7259
:102460003A206578745F72616D5B2534645D203D50
:102470002025303258202873686F756C642062659F
:102480002025303258290D0A005352414D207465E1
:10249000737420636F6D706C657465642077697404
:1024A00068200D0A253464206572726F727320698A
:1024B0006E20777269746520706861736520616E43
:1024C00064200D0A253464206572726F727320696E
:1024D0006E2072657472696576616C2070686173D4
:1024E000650D0A0D0A0054657374696E67206D6589
:1024F0006D6F727920726567696F6E204144430089
:10250000414443207465737420646F6E65005465A4
:102510007374696E67206D656D6F7279207265677F
:10252000696F6E205352414D005352414D207465E6
:10253000737420646F6E6500555000646F776E0091
:102540007269676874006C656674004A4F593A2076
:102550002563200A0D0044415441206E6F646531AB
:102560003A2025640A0D006C696E652031006C69A3
:102570006E652032006C696E652033006C696E6593
:102580002034006F7070006D656E755F706F733A08
:10259000202564200043414E535441542061667409
:1025A00065722072657365743A2030782530325830
:1025B0000A004D435032353135206973204E4F5457
:1025C00020696E20636F6E66696775726174696FEA
:1025D0006E206D6F6465206166746572207265732C
:1025E00065742100747279696E6720746F2072655A
:1025F000616420627566666572205244202544201D
:102600000A005265636569766564206D6573736160
:1026100067653A200A0049443A202564200A204C84
:10262000656E6774683A202564200A2044617461ED
:082630003A202564200A000095
:00000001FF
