:100000000C9460030C94300A0C943F0A0C947D030A
:100010000C947D030C947D030C947D030C947D0360
:100020000C947D030C947D030C947D030C947D0350
:100030000C947D030C947D030C947D030C947D0340
:100040000C947D030C947D030C947D030C947D0330
:100050000C947D030C947D030C947D030C947D0320
:100060000C947D030C947D030C947D030C947D0310
:1000700000000000005C00000C000C007C287C28C4
:1000800058DC68002410480028542840000C000068
:10009000007884008478000054385400107C1000EC
:1000A00080400000101010000040000060100C00A4
:1000B00038543800487C40004864580044542C00B0
:1000C0001C107C005C5424003854240064140C0080
:1000D00068542C0048543800004800008048000054
:1000E0001028440028282800442810000454080040
:1000F00038445C00781478007C5428003844280088
:100100007C4438007C5444007C140400384474005F
:100110007C107C00447C440020403C007C106C003F
:100120007C4040007C187C0078103C00384438004B
:100130007C1408003844B8007C146800485424003B
:10014000047C04007C407C003C603C007C307C00F3
:100150006C106C000C700C0064544C00007C44006B
:100160000C106000447C00000804080080808000BF
:1001700000040800304878007C48300030484800CF
:1001800030487C00306850001078140090A8780047
:100190007C08700050744000808074007C106800FF
:1001A000447C4000781078007808700030483000B7
:1001B000F82810003048F80078100800505828003F
:1001C000083C4800384078003840380078207800F3
:1001D0004830480098A0780048685800107884009B
:1001E000007C00008478100008040804000000006F
:1001F0000000005F00000007000700147F147F1458
:10020000242A7F2A1223130864623649552250009B
:1002100005030000001C2241000041221C00082AA6
:100220001C2A0808083E080800503000000808088A
:100230000808006060000020100804023E51494593
:100240003E00427F400042615149462141454B31C9
:100250001814127F1027454545393C4A4949300159
:10026000710905033649494936064949291E0036B0
:100270003600000056360000000814224114141401
:10028000141441221408000201510906324979412F
:100290003E7E1111117E7F494949363E414141223E
:1002A0007F4141221C7F494949417F090901013EA3
:1002B000414151327F0808087F00417F41002040C2
:1002C000413F017F081422417F404040407F0204AB
:1002D000027F7F0408107F3E4141413E7F090909AA
:1002E000063E4151215E7F09192946464949493157
:1002F00001017F01013F4040403F1F2040201F7F00
:100300002018207F631408146303047804036151E8
:1003100049454300007F4141020408102041417FCC
:100320000000040201020440404040400001020479
:100330000020545454787F4844443838444444207E
:10034000384444487F3854545418087E0901020840
:100350001454543C7F0804047800447D400020403D
:10036000443D00007F10284400417F40007C041879
:1003700004787C0804047838444444387C14141409
:1003800008081414187C7C080404084854545420A9
:10039000043F4440203C4040207C1C2040201C3C2A
:1003A0004030403C44281028440C5050503C446499
:1003B000544C44000836410000007F0000004136E4
:1003C000080002010302010000000000000000001C
:1003D000065F5F0600000000070700070700001423
:1003E0007F7F147F7F1400242E6B6B3A120000462F
:1003F0006630180C666200307A4F5D377A48000428
:1004000007030000000000001C3E634100000000E4
:1004100041633E1C000000082A3E1C1C3E2A0808BE
:10042000083E3E0808000000A0E060000000000850
:100430000808080808000000006060000000006074
:1004400030180C060301003E7F594D7F3E000042EC
:10045000427F7F40400000627359496F660000226E
:100460006349497F360000181C16137F7F10002750
:100470006745457D3900003C7E4B497930000003DB
:100480006371190F070000367F49497F3600000667
:100490004F49693F1E000000006C6C000000000026
:1004A000A0EC6C00000000081C3663410000001442
:1004B00014141414140000004163361C08000002D8
:1004C0000351590F0600003E7F415D5D1F1E007CF9
:1004D0007E13137E7C0000417F7F49497F36001CDC
:1004E0003E634141632200417F7F41637F1C0041A5
:1004F0007F7F495D416300417F7F491D0103001CEF
:100500003E6341517372007F7F08087F7F000000C7
:10051000417F7F41000000307040417F3F0100413A
:100520007F7F081C776300417F7F41406070007FC0
:100530007F060C067F7F007F7F060C187F7F001CE4
:100540003E6341633E1C00417F7F49090F06001E48
:100550003F21717F5E0000417F7F19396F46002681
:10056000674D597B32000003417F7F410300007FCC
:100570007F40407F7F00001F3F60603F1F00007F83
:100580007F3018307F7F0063771C081C776300077B
:100590004F78784F0700006773594D47637100002B
:1005A0007F7F41410000000103060C18306000000D
:1005B00041417F7F000000080C0603060C08008004
:1005C000808080808080800000030704000000207D
:1005D0007454543C784000413F7F44447C38003898
:1005E0007C44446C280000307848493F7F40003804
:1005F0007C54545C180000487E7F49030200009838
:10060000BCA4A4F87C0400417F7F08047C7800002F
:10061000447D7D4000000040C484FD7D0000004119
:100620007F7F10386C440000417F7F400000007CD9
:100630007C0C180C7C78007C7C04047C78000038EE
:100640007C44447C38000084FCF8A4243C18001846
:100650003C24A4F8FC8400447C78441C1800004826
:100660005C54547424000000043E7F442400003C89
:100670007C40403C7C40001C3C60603C1C00003CDA
:100680007C6030607C3C00446C3810386C44009CCA
:10069000BCA0A0FC7C00004C64745C4C64000008AE
:1006A000083E7741410000000000777700000041DC
:1006B00041773E0808000002030103020301000025
:1006C00011241FBECFEFD4E0DEBFCDBF13E0A0E00A
:1006D000B1E0ECEEFFE102C005900D92A831B10748
:1006E000D9F723E0A8E1B3E001C01D92A332B2071D
:1006F000E1F70E947F030C94F40F0C940000CF9359
:10070000DF93CDB7DEB76F970FB6F894DEBF0FBE9D
:10071000CDBF8FE190E00E94200466E374E087E2A1
:1007200094E00E94490B0E9460040E942A050E94E6
:10073000FE060E9402070E9478092FEF8FEF92E0D9
:10074000215080409040E1F700C000C080E40E944A
:1007500072098BE0EAE0F1E0DE01119601900D9262
:100760008A95E1F76894992493F88E01095E1F4FEA
:100770000F2EF4E3AF2EF1E0BF2EF02D0F2EFEE38F
:10078000CF2EF1E0DF2EF02D0F2EFCE4EF2EF1E066
:10079000FF2EF02D3DC0882351F0DE011F96FE0193
:1007A000779680E09D9191938F5F8217D8F3F8013F
:1007B000E20FF11D108285E191E00E94AA0B8D8568
:1007C0008F938C858F93BF92AF920E94940B8E85EE
:1007D0001F928F93DF92CF920E94940B1F930F93DF
:1007E000FF92EF920E94940B89819A8101969770F3
:1007F0009A8389832FEF8FEF9EE0215080409040B5
:10080000E1F700C000000FB6F894DEBF0FBECDBF09
:100810002FEF8FEF9DE1215080409040E1F700C025
:100820000000CE0101960E94AA09CE010C960E94FA
:10083000F3098E85282F893008F4ADCF292DABCF51
:1008400090BD89B988E18AB98EE880BD0895CF93BB
:10085000C82F8A3039F05D9BFECFCCB990E080E0A4
:10086000CF9108958DE00E942704F5CF5F9BFECFC6
:100870008CB190E0089582E086B987B991E09BBB86
:100880002FE73AE196E0215030409040E1F700C078
:10089000000017B82FE73AE196E021503040904031
:1008A000E1F700C0000095E59BBB2FE73AE196E039
:1008B000215030409040E1F700C0000087B9089512
:1008C00085B7806885BF80B7806280BF0895CF926A
:1008D000DF92EF92FF920F931F93CF93DF938DE5FB
:1008E00091E00E94AA0B0E94390B6C010E943E0B02
:1008F000D0E0C0E010E000E00F2EF4E7EF2EF1E0D2
:10090000FF2EF02D05C02196C11598E0D907F1F012
:100910000E94390BFE01F85E80832081281799F32D
:1009200099279F938F931F922F93DF93CF93FF92DB
:10093000EF920E94940B0F5F1F4F8DB79EB70896E2
:100940000FB6F8949EBF0FBE8DBFDDCFC6010E94CB
:100950003E0BD0E0C0E0F12CE12C0F2EFEEACF2EB2
:10096000F1E0DF2EF02D05C02196C11598E0D907E2
:10097000F1F00E94390BFE01F85E20812817A1F3E7
:1009800099279F938F931F922F93DF93CF93DF929B
:10099000CF920E94940B8FEFE81AF80A8DB79EB79A
:1009A00008960FB6F8949EBF0FBE8DBFDDCFFF92A5
:1009B000EF921F930F938CEE91E09F938F930E9481
:1009C000940B0F900F900F900F900F900F90DF915E
:1009D000CF911F910F91FF90EF90DF90CF900895EE
:1009E000CF93DF9389E492E00E94AA0BC0E0D0E1AC
:1009F00085EA8883E7E9FAE33197F1F700C0000060
:100A0000A096C115F8E1DF07A1F783E692E00E9406
:100A1000AA0B81E792E00E94AA0B85EA8883E7E9A6
:100A2000FAE33197F1F700C00000A096C115F0E29B
:100A3000DF07A1F78CE892E00E94AA0B2FE58AEE6F
:100A400090E0215080409040E1F700C00000DF912D
:100A5000CF9108958D9A8FB581608FBD8EB58860D6
:100A60008EBD8FB580688FBD8FB58F7B8FBD8EB5E6
:100A700081608EBD8FE790E09BBD8ABDB898C0981D
:100A80000895CF93DF93CDB7DEB728970FB6F894CC
:100A9000DEBF0FBECDBFE0E0F0E1108240812091CB
:100AA0000110809103106091021030E03A83298395
:100AB00050E05C834B8370E07E836D8390E0988789
:100AC0008F833A815C817E81988528960FB6F89451
:100AD000DEBF0FBECDBFDF91CF910895EF92FF92A1
:100AE0000F931F93CF93DF93CDB7DEB760970FB609
:100AF000F894DEBF0FBECDBF8C017B010E94410583
:100B000029873A874B875C876D877E878F87988B8D
:100B1000E985FA852B853C852E153F05D4F12E19E4
:100B20003F0944E6429FC001439F900D112468EFA6
:100B300070E06E197F090E94840A462FF72EE01795
:100B4000F107CCF598012E1B3F0B5CE95203C00165
:100B5000539F900D1124B801675471090E94840AB3
:100B60009D853E858F8528893E832887262F372FB0
:100B70005F2D692F7E81988560960FB6F894DEBF51
:100B80000FBECDBFDF91CF911F910F91FF90EF90DE
:100B90000895C701821B930B9C014CE94203C001DD
:100BA000439F900D1124B701635471090E94840A78
:100BB000462FF72EC4CFE01BF10B24E62E9FC00179
:100BC0002F9F900D112465EF70E0601B710B0E9448
:100BD000840AC6CFCF93DF93CDB7DEB728970FB681
:100BE000F894DEBF0FBECDBF29833A834B835C836D
:100BF00029813A818B819C81833391058CF48E3CD1
:100C00009F4FCCF081E090E0233331055CF42E3C23
:100C10003F4F1CF490E080E005C084E090E002C00B
:100C200082E090E028960FB6F894DEBF0FBECDBFED
:100C3000DF91CF91089583E090E0F4CF4F925F92DF
:100C40006F927F92AF92BF92CF92DF92EF92FF921C
:100C50000F931F93CF93DF93CDB7DEB760970FB697
:100C6000F894DEBF0FBECDBF04E610E0412C512C3E
:100C70003201F12CE12CD12CC12CB12CA12C0E94E1
:100C8000410529873A874B875C876D877E878F87E9
:100C9000988B83EC99E00197F1F700C000008985FB
:100CA0009A85A80EB91E8B859C85C80ED91E8D8588
:100CB0009E85E80EF91E8F859889092E000CAA0BD7
:100CC000BB0B480E591E6A1E7B1E01501109B9F656
:100CD00083EC99E00197F1F700C0000083EC99E004
:100CE0000197F1F700C0000024E630E0C501B9012A
:100CF0000E94840AB62E7A83C601B9010E94840A32
:100D0000062F7C83C701B9010E94840A162F7E83B7
:100D1000C301B20124E630E040E050E00E94980AAE
:100D2000822F38872F832B2D3A81402F5C81612FB2
:100D30007E81988560960FB6F894DEBF0FBECDBF5A
:100D4000DF91CF911F910F91FF90EF90DF90CF90A7
:100D5000BF90AF907F906F905F904F90089587B352
:100D6000886187BB88B3886188BBBD9ABF9ABE98EB
:100D70008DB1837F8DB98DB181658DB908958FB99E
:100D8000779BFECF08958FB9779BFECF8FB10895E3
:100D90008FEF8FB9779BFECF8FB108959C014423CD
:100DA000E9F0FB01DC014150CB010196480F592FBE
:100DB000511D8FEF05C031961196E417F50771F0BC
:100DC000982F2115310509F09C919FB9779BFECF93
:100DD0006115710581F39FB19083EDCF089598B3AC
:100DE0009A6198BB98B321E030E002C0220F331F14
:100DF0008A95E2F72095292328BB089588B38A6154
:100E000088BB08950895FF920F931F93CF93DF93AC
:100E1000009709F453C0EC0184E00E94EF0684E0DF
:100E20000E94C3068AE18A95F1F700C080E00E9423
:100E3000C306F82E83E08A95F1F7000080E00E9457
:100E4000C306082F83E08A95F1F7000080E00E9436
:100E5000C306182F0E94FE068881F0FA80F9F1FA85
:100E600081F9F2FA82F9F3FA83F9F4FA84F9F5FADE
:100E700085F98883998100FB90F901FB91F902FBC8
:100E800092F903FB93F904FB94F905FB95F906FB32
:100E900096F999838A8114FB84F912FB82F913FB7A
:100EA00083F911FB81F910FB80F98A8390E080E0DF
:100EB000DF91CF911F910F91FF9008958FEF9FEFDA
:100EC000F7CFCF93C82FC29883E00E94EF068C2FF4
:100ED0000E94BF060E94FE06CF910895806B90E0AD
:100EE0000E9461070895CF93C82F8F7090E00E94F1
:100EF0006107C295CF70C0618C2F90E00E9461079E
:100F0000CF910895CF93C62F0E946E078C2F0E9419
:100F10007307CF91089560E080E00E9482070895F2
:100F2000CF93C82FC29A83E00E94EF0689EF90E02A
:100F30000197F1F700C000008C2F0E94BF060E94AD
:100F4000FE06CF910895CF93DF930E948B07D0E0E8
:100F50008D2F0E946E07C0E080E00E949007CF5F57
:100F6000C038D1F7DF5FD83099F7DF91CF9108957E
:100F7000BA9A8EEA90E00E94610781EA90E00E94AE
:100F8000610788EC90E00E94610780E290E00E9497
:100F9000610782E090E00E9461078FEA90E00E9482
:100FA00061070E94A3070E948B070895CF930E94B8
:100FB0006E0780E00E947307C0E08C2F0E947307C9
:100FC00080E00E949007CF5FC038B9F7CF910895B5
:100FD0000F931F93CF93DF938032D4F0C82F0C2E42
:100FE000000CDD0BA097CE01880F991F880F991F69
:100FF000C0E7D0E0C80FD92FD11D8E010C5F1F4F65
:10100000FE0184910E9490072196C017D107C1F775
:10101000DF91CF911F910F910895CF93DF93EC0152
:101020008881882331F021960E94E80789918111F7
:10103000FBCFDF91CF910895CF93DF93D82FC0E0FE
:101040006EE68C2F0E948207DC1749F080E20E9436
:10105000E807CF5FC430A1F7DF91CF9108958CE30B
:101060000E94E807F6CFB8980E948B078BE992E0C0
:101070000E940D0860E081E00E94820782EA92E00F
:101080000E940D0860E082E00E94820789EA92E0F7
:101090000E940D0860E083E00E94820780EB92E0EE
:1010A0000E940D0808954F925F926F927F928F92E7
:1010B0009F92AF92BF92CF92DF92EF92FF920F93E7
:1010C0001F93CF93DF93CDB7DEB728970FB6F89471
:1010D000DEBF0FBECDBFC82EA62E80E00E941C082A
:1010E000712CB12CD12C55245394412C0F2EFBEB99
:1010F0008F2EF2E09F2EF02D1EC087EB92E00E9413
:10110000AA0B83EC99E00197F1F700C0000092E090
:10111000971508F073941F927F929F928F920E946E
:10112000940B872D0E941C080F900F900F900F902A
:10113000642C01C0652CB09B36C0B501C6010E946D
:101140006E0529833A834B835C836D837E838F8313
:10115000988783EC99E00197F1F700C000007501D2
:10116000860129813A814B815C816D817E818F81ED
:1011700098850E94EA05E3ECF9E03197F1F700C0A9
:10118000000084309105B1F26620A9F28330910508
:1011900009F4B3CF029779F671107A94872D0E94E3
:1011A0001C08642CC8CF872D28960FB6F894DEBF94
:1011B0000FBECDBFDF91CF911F910F91FF90EF90A8
:1011C000DF90CF90BF90AF909F908F907F906F9067
:1011D0005F904F900895CF93C82FC19883E00E94ED
:1011E000BF068C2F0E94BF060E94C806C19ACF91ED
:1011F0000895CF93DF93D82FC62FC19882E00E9425
:10120000BF068D2F0E94BF068C2F0E94BF06C19A79
:10121000DF91CF910895833091057CF4C1980097B8
:1012200039F08130910551F0029719F424E801C09A
:1012300021E8822F0E94BF06C19A089522E8F9CFC3
:101240001F93CF93DF93182FD62FC42FC19885E01B
:101250000E94BF06812F0E94BF068D2F0E94BF06ED
:101260008C2F0E94BF06C19ADF91CF911F910895E4
:10127000C19880EC0E94BF06C19A0895CF93B99A95
:10128000C19ABC9AC49ABB9AC39A0E94AF060E94A4
:10129000380983EC99E00197F1F700C000008EE077
:1012A0000E94EB08C82F1F928F9389EC92E09F93C6
:1012B0008F930E94940BC07E0F900F900F900F9011
:1012C00080E0C03829F086EE92E00E94AA0B81E00F
:1012D000CF910895C19880EA0E94BF060E94C80677
:1012E000C19A0895482F60EE8FE00E94200908956A
:1012F0000E943E090E94380963E08AE20E94F908D0
:1013000060E989E20E94F90862E088E20E94F90837
:1013100060E680E60E94F90860E680E70E94F9082E
:1013200065E08BE20E94F90840E06FEF8CE20E94DA
:10133000200980E40E94720908958A98929A85B7DC
:10134000826085BF85B78E7F85BF8BB780648BBF7A
:10135000789408950F931F93CF93DF93009709F428
:1013600040C0FC012281293030F080E0DF91CF9134
:101370001F910F910895EC0180E30E94EB0883FF19
:1013800002C080E0F3CF08811981B8017695679596
:10139000769567957695679581E30E94F908602FA9
:1013A0006295660F607E82E30E94F9086A816F7021
:1013B00085E30E94F9088A81882369F010E0FE0124
:1013C000E10FF11D638186E3810F0E94F9081F5F21
:1013D0008A811817A0F390E080E00E940B0981E059
:1013E000C5CF80E0C3CF0F931F93CF93DF930097B8
:1013F00091F18C0181E60E94EB08C82F82E60E94E1
:10140000EB082C2F30E0220F331F220F331F220F47
:10141000331F829586958770282BF80131832083AE
:1014200085E60E94EB088F70F8018283882371F0B3
:101430000D5F1F4FD6E6D80FC6E68C2F0E94EB0833
:10144000F80181938F01CF5FCD13F7CF40E061E0CA
:101450008CE20E942009DF91CF911F910F91089596
:101460001F920F920FB60F9211248F9381E08093F9
:1014700018038F910F900FBE0F901F9018951F9219
:101480000F920FB60F9211248F9381E0809318036F
:101490008F910F900FBE0F901F9018951F93CF93B1
:1014A000DF93CDB7DEB72B970FB6F894DEBF0FBE34
:1014B000CDBF8091180381110AC02B960FB6F89406
:1014C000DEBF0FBECDBFDF91CF911F910895109267
:1014D00018038CE20E94EB08182F80FD0AC012FD51
:1014E0000DC011FFEACF40E062E08CE20E942009CB
:1014F000E4CFCE0101960E94F309F1CF40E064E011
:101500008CE20E942009EDCF97FB072E16F4009481
:1015100007D077FD09D00E94B70A07FC05D03EF43A
:10152000909581959F4F0895709561957F4F08958F
:10153000052E97FB1EF400940E94AF0A57FD07D0BA
:101540000E94CB0A07FC03D04EF40C94AF0A5095CE
:101550004095309521953F4F4F4F5F4F089590959F
:101560008095709561957F4F8F4F9F4F0895AA1B6F
:10157000BB1B51E107C0AA1FBB1FA617B70710F07E
:10158000A61BB70B881F991F5A95A9F780959095B0
:10159000BC01CD010895A1E21A2EAA1BBB1BFD01BF
:1015A0000DC0AA1FBB1FEE1FFF1FA217B307E40742
:1015B000F50720F0A21BB30BE40BF50B661F771F9A
:1015C000881F991F1A9469F760957095809590957A
:1015D0009B01AC01BD01CF0108958F929F92AF9204
:1015E000BF92CF92DF92EF92FF92CF93DF93EC0105
:1015F000688179818A819B816115710581059105D9
:1016000021F464E279ED8BE597E02DE133EF41E0E1
:1016100050E00E94980A49015A019B01AC01A7EAD7
:10162000B1E40E949B0F6B017C01ACEEB4EFA5010D
:1016300094010E94A90FDC01CB018C0D9D1DAE1DF4
:10164000BF1DB7FF03C00197A109B04888839983E4
:10165000AA83BB839F77DF91CF91FF90EF90DF90BC
:10166000CF90BF90AF909F908F9008950E94ED0A09
:10167000089580E091E00E94ED0A0895B0E0A0E0B6
:101680008093000190930101A0930201B0930301A4
:1016900008950F931F93CF93DF93009759F461152B
:1016A000710541F4F0E0E0E0CF01DF91CF911F91AF
:1016B0000F9108958B01EC016EE070E081E090E005
:1016C0000E94AF0DFC01892B69F380E8838301152B
:1016D000110571F01387028781E8838380911903D4
:1016E00090911A03892B21F4F0931A03E0931903C4
:1016F0002097D1F2D187C0878381826083838091D4
:101700001B0390911C03892B79F6F0931C03E09343
:101710001B0380911D0390911E03892B29F6F093E2
:101720001E03E0931D03C0CFB0E0A0E0EAE9FBE0B8
:101730000C94BE0FAE014B5F5F4FFA016191719146
:10174000AF0180911B0390911C030E94D50BE2E036
:101750000C94DA0F0F931F93CF93DF93E0911B0349
:10176000F0911C032381EC0110E000E021FD08C092
:101770000FEF1FEF14C00995892B11F00FEF1FEF2A
:10178000899160911B0370911C03DB011896ED9108
:10179000FC918111F0CF8AE00995892B49F7C801A6
:1017A000DF91CF911F910F910895ABE0B0E0EBED89
:1017B000FBE00C94AE0F7C013B018A01FC01178217
:1017C0001682838181FFC8C1CE0101965C01F701B9
:1017D0009381F30193FD859193FF81913F018823CC
:1017E00009F453C1853239F493FD859193FF8191BA
:1017F0003F01853229F4B70190E00E940D0FE7CF39
:10180000912C212C312CFFE1F31538F08B3211F1A2
:1018100090F4803209F1833229F137FC3CC020ED8D
:10182000280F2A3050F536FE20C08AE0989E200D01
:101830001124922E06C08D3291F0803371F7689496
:1018400030F8F30193FD859193FF81913F01811160
:10185000DACF21C0689431F8689432F8F2CF6894F6
:1018600033F8EFCF689434F8ECCFEAE02E9E200DE9
:101870001124222E689435F8E4CF8E3229F436FCF8
:1018800004C1689436F8DDCF8C3619F4689437F8C3
:10189000D8CF8836B1F2982F9F7D95549330E0F0E1
:1018A0008336A1F18337C1F1833509F063C0280184
:1018B000F2E04F0E511CF801C080D180692D70E01C
:1018C00036FC02C06FEF7FEFC6010E94F00E4C01A4
:1018D000689437F882010AC00C5F1F4FFFE3F98359
:1018E00088248394912C6501E89437F833FE2DC049
:1018F000522C8114910471F5552009F468CFB70179
:1019000080E290E00E940D0F5A94F6CFF80180819A
:1019100089830E5F1F4FE4CF2801F2E04F0E511C68
:10192000F801C080D180692D70E036FC02C06FEFF5
:101930007FEFC6010E94020F4C018201D5CFB70193
:1019400080E290E00E940D0F2A942814190409F0F7
:10195000B0F7CECFF60137FC859137FE81916F014C
:10196000B70190E00E940D0F51105A94F1E08F1AC8
:101970009108BFCF843619F0893609F077C0F80195
:1019800037FE6BC060817181828193810C5F1F4F34
:10199000F32DFF763F2E97FF09C0909580957095A7
:1019A00061957F4F8F4F9F4F689437F82AE030E062
:1019B000A5010E943D0FC82ECA188C2C432C36FE60
:1019C0000CC0E89440F8C91440F434FE05C032FC61
:1019D00003C0F32DFE7E4F2E892C44FE95C0FE01E0
:1019E000EC0DF11D8081803309F087C0242D297E04
:1019F000422E842D8870582E43FC95C040FE8FC027
:101A00009C2C821418F42C0C922C981844FE91C033
:101A1000B70180E390E00E940D0F42FE09C088E705
:101A200090E041FE02C088E590E0B7010E940D0FF2
:101A3000C91408F48AC0CA94D12C9FEFC91AD90AD4
:101A4000CA0CDB1CF60182916F01B70190E00E9485
:101A50000D0FAC14BD04B1F74FCF60817181072E1B
:101A6000000C880B990B0E5F1F4F92CFD32CE8947C
:101A7000D4F82AE030E0853739F1232D297FD22EA2
:101A80008F3601F148F48835A9F0F70186819781F6
:101A90002B96E2E10C94CA0F803749F08837A9F7FA
:101AA000D4FE02C06894D2F820E130E00DC0689402
:101AB000D4F8F6CF34FE03C0822F8660D82E20E102
:101AC00032E002C028E030E0F801D7FE0FC06081AC
:101AD0007181828193810C5F1F4FA5010E943D0F90
:101AE000C82ECA183D2CE89437F867CF6081718101
:101AF00090E080E00E5F1F4FF0CF42FC02C0839465
:101B000078CF8394839475CF842D867809F471CF30
:101B1000F6CFB70180E290E00E940D0F839482140B
:101B2000C0F3512C73CF522C5818821408F46ECF86
:101B3000F8CF842D867809F47BCF8BE241FE80E2DA
:101B400047FC8DE2B70190E071CFB70180E390E0F0
:101B50000E940D0F9A946CCF8FEF9FEF99CF0F9348
:101B60001F93CF93DF93869F8001879F100D969FD1
:101B7000100D1124C8010E94CB0DEC01009729F033
:101B8000A80170E060E00E94FB0ECE01DF91CF91D2
:101B90001F910F9108950F931F93CF93DF9382307E
:101BA000910510F482E090E0E0912103F09122038E
:101BB00030E020E0B0E0A0E0309799F42115310545
:101BC00009F44AC0281B390B24303105D8F58A8125
:101BD0009B816115710589F1FB0193838283FE016D
:101BE00011C0408151810281138148175907E0F0EB
:101BF0004817590799F4109761F012960C931297B1
:101C000013961C933296CF01DF91CF911F910F91C4
:101C100008950093210310932203F4CF2115310579
:101C200051F04217530738F0A901DB019A01BD01B9
:101C3000DF01F801C1CFEF01F9CF90932203809328
:101C40002103CDCFFE01E20FF31F81939193225028
:101C5000310939832883D7CF20911F033091200386
:101C6000232B41F42091060130910701309320038A
:101C700020931F03209104013091050121153105A6
:101C800041F42DB73EB74091080150910901241B42
:101C9000350BE0911F03F0912003E217F307A0F446
:101CA0002E1B3F0B2817390778F0AC014E5F5F4FB2
:101CB0002417350748F04E0F5F1F509320034093C1
:101CC0001F03819391939FCFF0E0E0E09CCFCF93EF
:101CD000DF930097E9F0FC01329713821282A09102
:101CE0002103B0912203ED0130E020E01097A1F430
:101CF00020813181820F931F20911F033091200397
:101D00002817390709F061C0F0932003E0931F03FF
:101D1000DF91CF910895EA01CE17DF07E8F54A81F8
:101D20005B819E0141155105B1F7E901FB83EA830F
:101D300049915991C40FD51FEC17FD0761F48081BB
:101D400091810296840F951FE9019983888382818E
:101D500093819B838A83F0E0E0E012968D919C91C1
:101D600013970097B9F52D913C911197CD010296EB
:101D7000820F931F20911F033091200328173907EA
:101D800039F6309751F51092220310922103B09347
:101D90002003A0931F03BCCFD383C2834081518112
:101DA000840F951FC817D90761F44E5F5F4F888174
:101DB0009981480F591F518340838A819B81938366
:101DC00082832115310509F0B0CFF0932203E0930F
:101DD00021039ECFFD01DC01C0CF13821282D7CF39
:101DE000FC010590615070400110D8F780959095E6
:101DF0008E0F9F1F0895DC0101C06D93415050402C
:101E0000E0F70895FC016150704001900110D8F78F
:101E1000809590958E0F9F1F08950F931F93CF93DA
:101E2000DF93182F092FEB018B8181FD09C01FEF74
:101E30000FEF812F902FDF91CF911F910F91089578
:101E400082FF14C02E813F818C819D812817390724
:101E50003CF4E881F981CF0101969983888310834E
:101E60008E819F8101969F838E83E3CFE885F985DC
:101E7000812F0995892BA1F3DACFFA01AA272830FF
:101E800051F1203181F1E8946F936E7F6E5F7F4F47
:101E90008F4F9F4FAF4FB1E03ED0B4E03CD0670FC3
:101EA000781F891F9A1FA11D680F791F8A1F911D16
:101EB000A11D6A0F711D811D911DA11D20D009F466
:101EC00068943F912AE0269F11243019305D3193A8
:101ED000DEF6CF010895462F4770405D4193B3E091
:101EE0000FD0C9F7F6CF462F4F70405D4A3318F038
:101EF000495D31FD4052419302D0A9F7EACFB4E0E9
:101F0000A6959795879577956795BA95C9F70097A0
:101F10006105710508959B01AC010A2E0694579541
:101F2000479537952795BA95C9F7620F731F841F98
:101F3000951FA01D08950E94E50FA59F900DB49FC9
:101F4000900DA49F800D911D11240895B7FF0C944E
:101F50009B0F0E949B0F821B930B08952F923F9221
:101F60004F925F926F927F928F929F92AF92BF92A9
:101F7000CF92DF92EF92FF920F931F93CF93DF9355
:101F8000CDB7DEB7CA1BDB0B0FB6F894DEBF0FBEB2
:101F9000CDBF09942A88398848885F846E847D84FF
:101FA0008C849B84AA84B984C884DF80EE80FD8001
:101FB0000C811B81AA81B981CE0FD11D0FB6F89477
:101FC000DEBF0FBECDBFED010895A29FB001B39F4C
:101FD000C001A39F700D811D1124911DB29F700D32
:0C1FE000811D1124911D0895F894FFCF7D
:101FEC000100000000002303200001000868656C5C
:101FFC006C6F6F6F6F48656C6C6F2120576520722A
:10200C00656365697665642061206D6573736167CE
:10201C00652E0D0049643A202575200D0A004C658B
:10202C006E6774683A202575200D0A004D65737330
:10203C006167653A202573200D0A0D0A00537461FF
:10204C007274696E67205352414D20746573742EFF
:10205C002E2E0D00577269746520706861736520AF
:10206C006572726F723A206578745F72616D5B2570
:10207C0034645D203D2025303258202873686F75FC
:10208C006C642062652025303258290D0A00526597
:10209C007472696576616C20706861736520657215
:1020AC00726F723A206578745F72616D5B2534646F
:1020BC005D203D2025303258202873686F756C6484
:1020CC002062652025303258290D0A005352414DAB
:1020DC00207465737420636F6D706C657465642017
:1020EC0077697468200D0A253464206572726F72EA
:1020FC007320696E207772697465207068617365EE
:10210C0020616E64200D0A253464206572726F7232
:10211C007320696E2072657472696576616C2070CB
:10212C00686173650D0A0D0A0054657374696E67F6
:10213C00206D656D6F727920726567696F6E2041D5
:10214C00444300414443207465737420646F6E658E
:10215C000054657374696E67206D656D6F727920BC
:10216C00726567696F6E205352414D005352414D59
:10217C00207465737420646F6E65006C696E6520E5
:10218C0031006C696E652032006C696E652033001D
:10219C006C696E652034006F7070006D656E755FD4
:1021AC00706F733A202564200043414E53544154C0
:1021BC002061667465722072657365743A2030789C
:1021CC00253032580A004D43503235313520697371
:1021DC00204E4F5420696E20636F6E66696775726E
:1021EC006174696F6E206D6F6465206166746572D1
:0821FC00207265736574210077
:00000001FF
