:100000000C9460030C94A00A0C947D030C947D0363
:100010000C947D030C947D030C947D030C947D0360
:100020000C947D030C947D030C947D030C947D0350
:100030000C947D030C947D030C947D030C947D0340
:100040000C947D030C947D030C947D030C947D0330
:100050000C947D030C947D030C947D030C947D0320
:100060000C947D030C947D030C947D030C947D0310
:1000700000000000005C00000C000C007C287C28C4
:1000800058DC68002410480028542840000C000068
:10009000007884008478000054385400107C1000EC
:1000A00080400000101010000040000060100C00A4
:1000B00038543800487C40004864580044542C00B0
:1000C0001C107C005C5424003854240064140C0080
:1000D00068542C0048543800004800008048000054
:1000E0001028440028282800442810000454080040
:1000F00038445C00781478007C5428003844280088
:100100007C4438007C5444007C140400384474005F
:100110007C107C00447C440020403C007C106C003F
:100120007C4040007C187C0078103C00384438004B
:100130007C1408003844B8007C146800485424003B
:10014000047C04007C407C003C603C007C307C00F3
:100150006C106C000C700C0064544C00007C44006B
:100160000C106000447C00000804080080808000BF
:1001700000040800304878007C48300030484800CF
:1001800030487C00306850001078140090A8780047
:100190007C08700050744000808074007C106800FF
:1001A000447C4000781078007808700030483000B7
:1001B000F82810003048F80078100800505828003F
:1001C000083C4800384078003840380078207800F3
:1001D0004830480098A0780048685800107884009B
:1001E000007C00008478100008040804000000006F
:1001F0000000005F00000007000700147F147F1458
:10020000242A7F2A1223130864623649552250009B
:1002100005030000001C2241000041221C00082AA6
:100220001C2A0808083E080800503000000808088A
:100230000808006060000020100804023E51494593
:100240003E00427F400042615149462141454B31C9
:100250001814127F1027454545393C4A4949300159
:10026000710905033649494936064949291E0036B0
:100270003600000056360000000814224114141401
:10028000141441221408000201510906324979412F
:100290003E7E1111117E7F494949363E414141223E
:1002A0007F4141221C7F494949417F090901013EA3
:1002B000414151327F0808087F00417F41002040C2
:1002C000413F017F081422417F404040407F0204AB
:1002D000027F7F0408107F3E4141413E7F090909AA
:1002E000063E4151215E7F09192946464949493157
:1002F00001017F01013F4040403F1F2040201F7F00
:100300002018207F631408146303047804036151E8
:1003100049454300007F4141020408102041417FCC
:100320000000040201020440404040400001020479
:100330000020545454787F4844443838444444207E
:10034000384444487F3854545418087E0901020840
:100350001454543C7F0804047800447D400020403D
:10036000443D00007F10284400417F40007C041879
:1003700004787C0804047838444444387C14141409
:1003800008081414187C7C080404084854545420A9
:10039000043F4440203C4040207C1C2040201C3C2A
:1003A0004030403C44281028440C5050503C446499
:1003B000544C44000836410000007F0000004136E4
:1003C000080002010302010000000000000000001C
:1003D000065F5F0600000000070700070700001423
:1003E0007F7F147F7F1400242E6B6B3A120000462F
:1003F0006630180C666200307A4F5D377A48000428
:1004000007030000000000001C3E634100000000E4
:1004100041633E1C000000082A3E1C1C3E2A0808BE
:10042000083E3E0808000000A0E060000000000850
:100430000808080808000000006060000000006074
:1004400030180C060301003E7F594D7F3E000042EC
:10045000427F7F40400000627359496F660000226E
:100460006349497F360000181C16137F7F10002750
:100470006745457D3900003C7E4B497930000003DB
:100480006371190F070000367F49497F3600000667
:100490004F49693F1E000000006C6C000000000026
:1004A000A0EC6C00000000081C3663410000001442
:1004B00014141414140000004163361C08000002D8
:1004C0000351590F0600003E7F415D5D1F1E007CF9
:1004D0007E13137E7C0000417F7F49497F36001CDC
:1004E0003E634141632200417F7F41637F1C0041A5
:1004F0007F7F495D416300417F7F491D0103001CEF
:100500003E6341517372007F7F08087F7F000000C7
:10051000417F7F41000000307040417F3F0100413A
:100520007F7F081C776300417F7F41406070007FC0
:100530007F060C067F7F007F7F060C187F7F001CE4
:100540003E6341633E1C00417F7F49090F06001E48
:100550003F21717F5E0000417F7F19396F46002681
:10056000674D597B32000003417F7F410300007FCC
:100570007F40407F7F00001F3F60603F1F00007F83
:100580007F3018307F7F0063771C081C776300077B
:100590004F78784F0700006773594D47637100002B
:1005A0007F7F41410000000103060C18306000000D
:1005B00041417F7F000000080C0603060C08008004
:1005C000808080808080800000030704000000207D
:1005D0007454543C784000413F7F44447C38003898
:1005E0007C44446C280000307848493F7F40003804
:1005F0007C54545C180000487E7F49030200009838
:10060000BCA4A4F87C0400417F7F08047C7800002F
:10061000447D7D4000000040C484FD7D0000004119
:100620007F7F10386C440000417F7F400000007CD9
:100630007C0C180C7C78007C7C04047C78000038EE
:100640007C44447C38000084FCF8A4243C18001846
:100650003C24A4F8FC8400447C78441C1800004826
:100660005C54547424000000043E7F442400003C89
:100670007C40403C7C40001C3C60603C1C00003CDA
:100680007C6030607C3C00446C3810386C44009CCA
:10069000BCA0A0FC7C00004C64745C4C64000008AE
:1006A000083E7741410000000000777700000041DC
:1006B00041773E0808000002030103020301000025
:1006C00011241FBECFEFD4E0DEBFCDBF12E0A0E00B
:1006D000B1E0E6E7F1E202C005900D92AE3BB10752
:1006E000D9F722E0AEEBB2E001C01D92A53DB20702
:1006F000E1F70E947F030C94B9100C940000CF9393
:10070000DF93CDB7DEB763970FB6F894DEBF0FBEA9
:10071000CDBF2FEF8FE797E0215080409040E1F769
:1007200000C000008FE190E00E94C8036EED73E00E
:100730008FEC93E00E940E0C0E9408040E94D204E9
:100740000E94CF060E941E070E940A0A0E94EE091C
:10075000CE0101960E94E7050AE011E0CE01019664
:100760000E948E06CE0109960E942E0B8823B1F3BB
:100770008C85282F082E000C330B3F938F931F93EB
:100780000F930E94590C0F900F900F900F90E6CF8F
:1007900090BD89B988E18AB98EE880BD0895CF936C
:1007A000C82F8A3039F05D9BFECFCCB990E080E055
:1007B000CF9108958DE00E94CF03F5CF5F9BFECFD0
:1007C0008CB190E0089582E086B987B991E09BBB37
:1007D0002FE73AE196E0215030409040E1F700C029
:1007E000000017B82FE73AE196E0215030409040E2
:1007F000E1F700C0000095E59BBB2FE73AE196E0EA
:10080000215030409040E1F700C0000087B90895C2
:1008100085B7806885BF80B7806280BF0895CF921A
:10082000DF92EF92FF920F931F93CF93DF9385E1B7
:1008300091E00E946F0C0E94FE0B6C010E94030C61
:10084000D0E0C0E010E000E00F2EFCE2EF2EF1E07F
:10085000FF2EF02D05C02196C11598E0D907F1F0C3
:100860000E94FE0BFE01F85E80832081281799F319
:1008700099279F938F931F922F93DF93CF93FF928C
:10088000EF920E94590C0F5F1F4F8DB79EB70896CD
:100890000FB6F8949EBF0FBE8DBFDDCFC6010E947C
:1008A000030CD0E0C0E0F12CE12C0F2EF6E6CF2EA9
:1008B000F1E0DF2EF02D05C02196C11598E0D90793
:1008C000F1F00E94FE0BFE01F85E20812817A1F3D3
:1008D00099279F938F931F922F93DF93CF93DF924C
:1008E000CF920E94590C8FEFE81AF80A8DB79EB785
:1008F00008960FB6F8949EBF0FBE8DBFDDCFFF9256
:10090000EF921F930F9384EA91E09F938F930E943D
:10091000590C0F900F900F900F900F900F90DF9148
:10092000CF911F910F91FF90EF90DF90CF9008959E
:10093000CF93DF9381E092E00E946F0CC0E0D0E1A2
:1009400085EA8883E7E9FAE33197F1F700C0000010
:10095000A096C115F8E1DF07A1F78BE192E00E94B4
:100960006F0C89E292E00E946F0C85EA8883E7E9C8
:10097000FAE33197F1F700C00000A096C115F0E24C
:10098000DF07A1F784E492E00E946F0C2FE58AEE66
:1009900090E0215080409040E1F700C00000DF91DE
:1009A000CF9108958D9A8FB581608FBD8EB5886087
:1009B0008EBD8FB580688FBD8FB58F7B8FBD8EB597
:1009C00081608EBD8FE790E09BBD8ABDB898C098CE
:1009D0000895FC01A0E0B0E11C928C9190E093831B
:1009E00082838091011090E0918380838091031035
:1009F00090E0978386838091021090E095838483B2
:100A00000895CF92DF92EF92FF920F931F93CF93AF
:100A1000DF93CDB7DEB728970FB6F894DEBF0FBED1
:100A2000CDBF7C016B018A01CE0101960E94E904D1
:100A30002B813C812C153D050CF452C02C193D092D
:100A400044E6429FC001439F900D112468EF70E07F
:100A50006C197D09161617060CF03FC00E94490B51
:100A6000F8017383628329813A812E153F050CF4C6
:100A700053C02E193F0944E6429FC001439F900D89
:100A8000112465EF70E06E197F09161617060CF039
:100A900040C00E94490BF801718360838D819E8163
:100AA000F801958384838F819885978386838081DD
:100AB0009181853691050CF448C084E690E09183DD
:100AC0008083F80182819381853691050CF447C0BB
:100AD00084E690E0938382834AC061E070E0BECFF9
:100AE000C601821B930B9C014CE94203C001439F4A
:100AF000900D1124B601635471091616170634F4CB
:100B00000E94490BF80173836283ADCF61E070E00E
:100B1000F7CF61E070E0BDCFC701821B930B9C0152
:100B20004CE94203C001439F900D1124B701675463
:100B300071091616170634F40E94490BF8017183E7
:100B40006083ACCF61E070E0F7CF8C399F4F0CF041
:100B5000B8CF8CE99FEFF80191838083B2CF8C39B5
:100B60009F4F2CF48CE99FEFF801938382832896A2
:100B70000FB6F894DEBF0FBECDBFDF91CF911F91AE
:100B80000F91FF90EF90DF90CF900895FC012281AC
:100B900033812333310594F42E3C3F4F94F0FC0114
:100BA00080819181833391057CF48E3C9F4F1CF4AE
:100BB00090E080E0089584E090E0089582E090E085
:100BC000089583E090E0089581E090E008954F92C9
:100BD0005F926F927F928F929F92AF92BF92CF92CD
:100BE000DF92EF92FF920F931F93CF93DF93CDB7D6
:100BF000DEB728970FB6F894DEBF0FBECDBF4C010D
:100C000004E610E0412C512C3201F12CE12CD12CC6
:100C1000C12CB12CA12CCE0101960E94E90483ECD9
:100C200099E00197F1F700C0000089819A81A80E30
:100C3000B91E8B819C81C80ED91E8D819E81E80EC4
:100C4000F91E8F819885092E000CAA0BBB0B480E4C
:100C5000591E6A1E7B1E01501109E9F6E3ECF9E00A
:100C60003197F1F700C0000024E630E0C501B9017A
:100C70000E94490BF40171836083C601B9010E948F
:100C8000490B73836283C701B9010E94490B7583C5
:100C90006483C301B20124E630E040E050E00E94EA
:100CA0005D0BF4013783268383EC99E00197F1F71C
:100CB00000C0000028960FB6F894DEBF0FBECDBF6F
:100CC000DF91CF911F910F91FF90EF90DF90CF9028
:100CD000BF90AF909F908F907F906F905F904F905C
:100CE0000895CF93DF9300D01F92CDB7DEB7CE012A
:100CF00001960E942207892B79F487EA91E60197F1
:100D0000F1F700C000008981829581700F900F90EB
:100D10000F90DF91CF91089580E0F8CFCF93DF93CC
:100D2000CDB7DEB763970FB6F894DEBF0FBECDBF69
:100D3000DC0112966D917C911397AE014F5F5F4F6E
:100D40008D919C910E940105E3ECF9E03197F1F758
:100D500000C00000FE0139968BE0DF011D928A95EC
:100D6000E9F783E08B8789818C598C878B818C593B
:100D70008D870E94710681110FC01E8660E0CE0132
:100D800009960E94140A63960FB6F894DEBF0FBE50
:100D9000CDBFDF91CF91089581E08E87EFCF87B3EC
:100DA0008A6187BB88B38A6188BBBD9ABF9ABE98A7
:100DB0008DB1837F8DB98DB181658DB908958FB95E
:100DC000779BFECF08958FB9779BFECF8FB10895A3
:100DD0008FEF8FB9779BFECF8FB108959C0144238D
:100DE000E9F0FB01DC014150CB010196480F592F7E
:100DF000511D8FEF05C031961196E417F50771F07C
:100E0000982F2115310509F09C919FB9779BFECF52
:100E10006115710581F39FB19083EDCF089598B36B
:100E20009A6198BB98B321E030E002C0220F331FD3
:100E30008A95E2F72095292328BB089588B38A6113
:100E400088BB0895FF920F931F93CF93DF93009772
:100E500009F453C0EC0184E00E940F0784E00E9473
:100E6000E3068AE18A95F1F700C080E00E94E3067C
:100E7000F82E83E08A95F1F7000080E00E94E306F7
:100E8000082F83E08A95F1F7000080E00E94E306D6
:100E9000182F0E941E078881F0FA80F9F1FA81F973
:100EA000F2FA82F9F3FA83F9F4FA84F9F5FA85F99A
:100EB0008883998100FB90F901FB91F902FB92F97B
:100EC00003FB93F904FB94F905FB95F906FB96F9EE
:100ED00099838A8114FB84F912FB82F913FB83F94D
:100EE00011FB81F910FB80F98A8390E080E0DF91AB
:100EF000CF911F910F91FF9008958FEF9FEFF7CF44
:100F0000CF93C82FC29883E00E940F078C2F0E94B6
:100F1000DF060E941E07CF910895806B0E94800714
:100F20000895CF93C82F8F700E9480078C2F8295D1
:100F30008F7080610E948007CF910895CF93C62F54
:100F40000E948D078C2F0E949107CF91089560E039
:100F500080E00E949E070895CF93C82FC29A83E035
:100F60000E940F0789EF90E00197F1F700C00000A1
:100F70008C2F0E94DF060E941E07CF910895CF9309
:100F8000DF930E94A707D0E08D2F0E948D07C0E05D
:100F900080E00E94AC07CF5FC038D1F7DF5FD83068
:100FA00099F7DF91CF910895BA9A8EEA0E9480074F
:100FB00081EA0E94800788EC0E94800780E20E94FC
:100FC000800782E00E9480078FEA0E9480070E94CB
:100FD000BF070E94A7070895CF930E948D0780E066
:100FE0000E949107C0E08C2F0E94910780E00E9430
:100FF000AC07CF5FC038B9F7CF9108950F931F9317
:10100000CF93DF938032D4F0C82F0C2E000CDD0B71
:10101000A097CE01880F991F880F991FC0E7D0E0D5
:10102000C80FD92FD11D8E010C5F1F4FFE01849177
:101030000E94AC072196C017D107C1F7DF91CF916D
:101040001F910F910895CF93DF93EC01888188233E
:1010500031F021960E94FE0789918111FBCFDF912B
:10106000CF910895CF93DF93D82FC0E06EE68C2FF9
:101070000E949E07DC1749F080E20E94FE07CF5FC6
:10108000C430A1F7DF91CF9108958CE30E94FE0751
:10109000F6CFB8980E94A70783E592E00E94230844
:1010A00060E081E00E949E078AE592E00E942308AA
:1010B00060E082E00E949E0781E692E00E942308A1
:1010C00060E083E00E949E0788E692E00E94230889
:1010D0000895AF92BF92CF92DF92EF92FF920F935B
:1010E0001F93CF93DF93CDB7DEB728970FB6F89451
:1010F000DEBF0FBECDBF082FE62E80E00E94320873
:10110000D12CF12C10E0AA24A394B12C0AC0029790
:1011100041F4D110DA948D2D0E943208CB2C01C0FD
:10112000CA2CB09B28C0AE014F5F5F4FB701C8010A
:101130000E94010583EC99E00197F1F700C00000DF
:10114000CE0101960E94C605E3ECF9E03197F1F774
:1011500000C000008430910519F3CC2011F38330D6
:101160009105A9F6F2E0FD1508F0D3948D2D0E94AB
:101170003208CB2CD6CF8D2D28960FB6F894DEBF33
:101180000FBECDBFDF91CF911F910F91FF90EF90D8
:10119000DF90CF90BF90AF900895CF93C82FC198A4
:1011A00083E00E94DF068C2F0E94DF060E94E80683
:1011B000C19ACF910895CF93DF93D82FC62FC198AE
:1011C00082E00E94DF068D2F0E94DF068C2F0E9496
:1011D000DF06C19ADF91CF910895833091057CF4A9
:1011E000C198009739F08130910551F0029719F4B8
:1011F00024E801C021E8822F0E94DF06C19A0895E9
:1012000022E8F9CF1F93CF93DF93182FD62FC42F47
:10121000C19885E00E94DF06812F0E94DF068D2F96
:101220000E94DF068C2F0E94DF06C19ADF91CF91CA
:101230001F910895C19880EC0E94DF06C19A08951D
:10124000CF930E941A0983EC99E00197F1F700C04F
:1012500000008EE00E94CD08C82F83EC99E0019732
:10126000F1F700C000001F92CF938FE692E09F93AA
:101270008F930E94590CC07E0F900F900F900F908B
:10128000C03839F08CE892E00E946F0C81E0CF9179
:10129000089560E680E60E94DB0860E680E70E9431
:1012A000DB0860E082E00E94DB0880E0F0CFC198BC
:1012B00080EA0E94DF060E94E806C19A0895482F3E
:1012C00060EE8FE00E94020908951F93CF93DF9391
:1012D0000E94200987EA91E60197F1F700C000001B
:1012E00063E08AE20E94DB0860E989E20E94DB0891
:1012F00062E088E20E94DB0860E680E60E94DB088C
:1013000060E680E70E94DB0840E06FEF8CE20E941D
:10131000020940E160E18FE00E94020980E30E943F
:10132000CD0883FDFBCF80E40E94CD0883FDF6CF7E
:1013300080E50E94CD0883FDF1CF40E060E18FE0C1
:101340000E9402098CE20E94CD08182F80FD1EC069
:1013500011FD30C060E081E30E94DB0860E082E3C1
:101360000E94DB0860E085E30E94DB0865E08BE219
:101370000E94DB0880E40E945F0940E06FEF8CE28E
:101380000E940209DF91CF911F91089585E60E9486
:10139000CD088F7049F0D6E6D80FC6E68C2F0E9494
:1013A000CD08CF5FDC13FACF40E061E08CE20E9411
:1013B0000209CECF85E70E94CD088F7049F0D6E7AD
:1013C000D80FC6E78C2F0E94CD08CF5FDC13FACF71
:1013D00040E062E08CE20E940209BCCF0E9420093A
:1013E00087EA91E60197F1F700C0000061E088E22A
:1013F0000E94DB086EEA89E20E94DB0863E08AE271
:101400000E94DB086FE38BE20E94DB0880E00E9411
:101410005F0908958A98929A85B7826085BF8BB7D5
:1014200080648BBF78940895EF92FF920F931F937F
:10143000CF93DF937C01062F162F1295107FFC01AE
:1014400060817181769567957695679576956795B4
:1014500081E3810F0E94DB08F70160816295660FCE
:10146000607E82E3810F0E94DB08F701D281DF708A
:101470006D2F85E3810F0E94DB08DD2399F0F3E0F7
:10148000EF0EF11CC6E3C10FDB5CD10F125CF7015C
:1014900061917F018C2F0E94DB08CD1719F0CF5F7F
:1014A000C113F5CF802F90E00E94ED08DF91CF911E
:1014B0001F910F91FF90EF9008950F931F93CF937B
:1014C0008C01C62F81E00E940F0784E28C0F880FE9
:1014D000880F0E94DF060E94E806C82F0E94E806D7
:1014E0008C2F90E0880F991F880F991F880F991FE4
:1014F000C295C695C7708C2BF801918380830E949A
:10150000E8060E94E8060E94E8068F70F8018283D0
:10151000882361F0C0E00E94E806F801EC0FF11D9D
:101520008383CF5FF8018281C817A8F3F801E80F21
:10153000F11D13820E941E07CF911F910F910895F4
:101540001F920F920FB60F9211248F9381E0809318
:10155000CA028F910F900FBE0F901F901895AF92F7
:10156000BF92CF92DF92EF92FF920F931F93CF9390
:10157000DF93CDB7DEB72B970FB6F894DEBF0FBE63
:10158000CDBF8091CA02811111C02B960FB6F8947D
:10159000DEBF0FBECDBFDF91CF911F910F91FF90A6
:1015A000EF90DF90CF90BF90AF9008951092CA0255
:1015B0008CE20E94CD08082F80FD0AC002FD48C0C1
:1015C00001FFE3CF40E062E08CE20E940209DDCF40
:1015D00081E60E94CD08C82E82E60E94CD08D12C5B
:1015E000CC0CDD1CCC0CDD1CCC0CDD1C8295869556
:1015F0008770C82A85E60E94CD088F70A82E99F0C2
:101600007E0184E0E80EF11C0F2EF6E6BF2EF02DD1
:10161000BA0C16E6812F0E94CD08F70181937F0155
:101620001F5F1B11F7CF40E061E08CE20E940209CE
:10163000DA82C982AB828BE0FE013196AEEBB2E07A
:1016400001900D928A95E1F781E08093C902B6CFAF
:1016500040E064E08CE20E940209B2CFDC0190918C
:10166000C902992359F09BE0EEEBF2E001900D9254
:101670009A95E1F71092C90281E0089580E00895FB
:1016800081E00E940F0780EC0E94DF060E941E0787
:10169000089597FB072E16F4009407D077FD09D024
:1016A0000E947C0B07FC05D03EF4909581959F4FDE
:1016B0000895709561957F4F0895052E97FB1EF450
:1016C00000940E94740B57FD07D00E94900B07FCFA
:1016D00003D04EF40C94740B5095409530952195A1
:1016E0003F4F4F4F5F4F089590958095709561954E
:1016F0007F4F8F4F9F4F0895AA1BBB1B51E107C01F
:10170000AA1FBB1FA617B70710F0A61BB70B881F91
:10171000991F5A95A9F780959095BC01CD01089520
:10172000A1E21A2EAA1BBB1BFD010DC0AA1FBB1FE5
:10173000EE1FFF1FA217B307E407F50720F0A21B57
:10174000B30BE40BF50B661F771F881F991F1A94C4
:1017500069F760957095809590959B01AC01BD01EE
:10176000CF0108958F929F92AF92BF92CF92DF9256
:10177000EF92FF92CF93DF93EC01688179818A81A8
:101780009B81611571058105910521F464E279ED74
:101790008BE597E02DE133EF41E050E00E945D0BD7
:1017A00049015A019B01AC01A7EAB1E40E94601013
:1017B0006B017C01ACEEB4EFA50194010E946E10A8
:1017C000DC01CB018C0D9D1DAE1DBF1DB7FF03C0FD
:1017D0000197A109B04888839983AA83BB839F7727
:1017E000DF91CF91FF90EF90DF90CF90BF90AF90BF
:1017F0009F908F9008950E94B20B089580E091E031
:101800000E94B20B0895B0E0A0E080930001909395
:101810000101A0930201B093030108950F931F9358
:10182000CF93DF93009759F46115710541F4F0E00F
:10183000E0E0CF01DF91CF911F910F9108958B01CF
:10184000EC016EE070E081E090E00E94740EFC011B
:10185000892B69F380E883830115110571F01387E3
:10186000028781E883838091CB029091CC02892BFF
:1018700021F4F093CC02E093CB022097D1F2D187F0
:10188000C0878381826083838091CD029091CE0254
:10189000892B79F6F093CE02E093CD028091CF02AE
:1018A0009091D002892B29F6F093D002E093CF02D9
:1018B000C0CFB0E0A0E0EFE5FCE00C948310AE01F7
:1018C0004B5F5F4FFA0161917191AF018091CD0241
:1018D0009091CE020E949A0CE2E00C949F100F931C
:1018E0001F93CF93DF93E091CD02F091CE0223813D
:1018F000EC0110E000E021FD08C00FEF1FEF14C065
:101900000995892B11F00FEF1FEF89916091CD029E
:101910007091CE02DB011896ED91FC918111F0CF10
:101920008AE00995892B49F7C801DF91CF911F9172
:101930000F910895ABE0B0E0E0EAFCE00C94731086
:101940007C013B018A01FC0117821682838181FFA1
:10195000C8C1CE0101965C01F7019381F30193FDAB
:10196000859193FF81913F01882309F453C185320A
:1019700039F493FD859193FF81913F01853229F4DC
:10198000B70190E00E94D20FE7CF912C212C312C8F
:10199000FFE1F31538F08B3211F190F4803209F148
:1019A000833229F137FC3CC020ED280F2A3050F556
:1019B00036FE20C08AE0989E200D1124922E06C08B
:1019C0008D3291F0803371F7689430F8F30193FD14
:1019D000859193FF81913F018111DACF21C06894F5
:1019E00031F8689432F8F2CF689433F8EFCF689406
:1019F00034F8ECCFEAE02E9E200D1124222E6894BC
:101A000035F8E4CF8E3229F436FC04C1689436F8F8
:101A1000DDCF8C3619F4689437F8D8CF8836B1F218
:101A2000982F9F7D95549330E0F08336A1F1833752
:101A3000C1F1833509F063C02801F2E04F0E511C5B
:101A4000F801C080D180692D70E036FC02C06FEFD4
:101A50007FEFC6010E94B50F4C01689437F88201F0
:101A60000AC00C5F1F4FFFE3F98388248394912CF5
:101A70006501E89437F833FE2DC0522C811491048F
:101A800071F5552009F468CFB70180E290E00E941B
:101A9000D20F5A94F6CFF801808189830E5F1F4FD1
:101AA000E4CF2801F2E04F0E511CF801C080D18034
:101AB000692D70E036FC02C06FEF7FEFC6010E9417
:101AC000C70F4C018201D5CFB70180E290E00E94A0
:101AD000D20F2A942814190409F0B0F7CECFF601DA
:101AE00037FC859137FE81916F01B70190E00E942C
:101AF000D20F51105A94F1E08F1A9108BFCF84365B
:101B000019F0893609F077C0F80137FE6BC06081A3
:101B10007181828193810C5F1F4FF32DFF763F2EE1
:101B200097FF09C090958095709561957F4F8F4F75
:101B30009F4F689437F82AE030E0A5010E94021018
:101B4000C82ECA188C2C432C36FE0CC0E89440F8E2
:101B5000C91440F434FE05C032FC03C0F32DFE7EF0
:101B60004F2E892C44FE95C0FE01EC0DF11D8081A5
:101B7000803309F087C0242D297E422E842D887061
:101B8000582E43FC95C040FE8FC09C2C821418F444
:101B90002C0C922C981844FE91C0B70180E390E081
:101BA0000E94D20F42FE09C088E790E041FE02C0C9
:101BB00088E590E0B7010E94D20FC91408F48AC0EA
:101BC000CA94D12C9FEFC91AD90ACA0CDB1CF601A2
:101BD00082916F01B70190E00E94D20FAC14BD0456
:101BE000B1F74FCF60817181072E000C880B990BE4
:101BF0000E5F1F4F92CFD32CE894D4F82AE030E048
:101C0000853739F1232D297FD22E8F3601F148F403
:101C10008835A9F0F701868197812B96E2E10C9433
:101C20008F10803749F08837A9F7D4FE02C0689436
:101C3000D2F820E130E00DC06894D4F8F6CF34FE3D
:101C400003C0822F8660D82E20E132E002C028E057
:101C500030E0F801D7FE0FC06081718182819381ED
:101C60000C5F1F4FA5010E940210C82ECA183D2C00
:101C7000E89437F867CF6081718190E080E00E5F73
:101C80001F4FF0CF42FC02C0839478CF839483949B
:101C900075CF842D867809F471CFF6CFB70180E235
:101CA00090E00E94D20F83948214C0F3512C73CF22
:101CB000522C5818821408F46ECFF8CF842D8678F1
:101CC00009F47BCF8BE241FE80E247FC8DE2B70155
:101CD00090E071CFB70180E390E00E94D20F9A9418
:101CE0006CCF8FEF9FEF99CF0F931F93CF93DF931D
:101CF000869F8001879F100D969F100D1124C801AB
:101D00000E94900EEC01009729F0A80170E060E0BD
:101D10000E94C00FCE01DF91CF911F910F910895C6
:101D20000F931F93CF93DF938230910510F482E0DD
:101D300090E0E091D302F091D40230E020E0B0E0F6
:101D4000A0E0309799F42115310509F44AC0281B09
:101D5000390B24303105D8F58A819B8161157105D5
:101D600089F1FB0193838283FE0111C0408151817F
:101D70000281138148175907E0F04817590799F471
:101D8000109761F012960C93129713961C9332964B
:101D9000CF01DF91CF911F910F9108950093D3024E
:101DA0001093D402F4CF2115310551F04217530797
:101DB00038F0A901DB019A01BD01DF01F801C1CFB3
:101DC000EF01F9CF9093D4028093D302CDCFFE01DF
:101DD000E20FF31F819391932250310939832883B5
:101DE000D7CF2091D1023091D202232B41F4209100
:101DF0000601309107013093D2022093D102209145
:101E00000401309105012115310541F42DB73EB78C
:101E10004091080150910901241B350BE091D1023A
:101E2000F091D202E217F307A0F42E1B3F0B281704
:101E3000390778F0AC014E5F5F4F2417350748F043
:101E40004E0F5F1F5093D2024093D1028193919322
:101E50009FCFF0E0E0E09CCFCF93DF930097E9F0D5
:101E6000FC01329713821282A091D302B091D40266
:101E7000ED0130E020E01097A1F420813181820F44
:101E8000931F2091D1023091D2022817390709F00F
:101E900061C0F093D202E093D102DF91CF91089517
:101EA000EA01CE17DF07E8F54A815B819E01411503
:101EB0005105B1F7E901FB83EA8349915991C40FB8
:101EC000D51FEC17FD0761F4808191810296840F84
:101ED000951FE90199838883828193819B838A83FB
:101EE000F0E0E0E012968D919C9113970097B9F580
:101EF0002D913C911197CD010296820F931F209155
:101F0000D1023091D2022817390739F6309751F5AE
:101F10001092D4021092D302B093D202A093D102B5
:101F2000BCCFD383C28340815181840F951FC817D2
:101F3000D90761F44E5F5F4F88819981480F591F1F
:101F4000518340838A819B8193838283211531054C
:101F500009F0B0CFF093D402E093D3029ECFFD01FD
:101F6000DC01C0CF13821282D7CFFC0105906150F3
:101F700070400110D8F7809590958E0F9F1F08959F
:101F8000DC0101C06D9341505040E0F70895FC0121
:101F90006150704001900110D8F7809590958E0F98
:101FA0009F1F08950F931F93CF93DF93182F092F2F
:101FB000EB018B8181FD09C01FEF0FEF812F902F67
:101FC000DF91CF911F910F91089582FF14C02E8150
:101FD0003F818C819D81281739073CF4E881F98184
:101FE000CF0101969983888310838E819F8101960A
:101FF0009F838E83E3CFE885F985812F0995892B0F
:10200000A1F3DACFFA01AA27283051F1203181F16A
:10201000E8946F936E7F6E5F7F4F8F4F9F4FAF4FF0
:10202000B1E03ED0B4E03CD0670F781F891F9A1F03
:10203000A11D680F791F8A1F911DA11D6A0F711DB7
:10204000811D911DA11D20D009F468943F912AE0C3
:10205000269F11243019305D3193DEF6CF010895AB
:10206000462F4770405D4193B3E00FD0C9F7F6CFDC
:10207000462F4F70405D4A3318F0495D31FD4052A4
:10208000419302D0A9F7EACFB4E0A695979587953A
:1020900077956795BA95C9F7009761057105089519
:1020A0009B01AC010A2E06945795479537952795C5
:1020B000BA95C9F7620F731F841F951FA01D08955D
:1020C0000E94AA10A59F900DB49F900DA49F800D13
:1020D000911D11240895B7FF0C9460100E946010A8
:1020E000821B930B08952F923F924F925F926F92B3
:1020F0007F928F929F92AF92BF92CF92DF92EF9298
:10210000FF920F931F93CF93DF93CDB7DEB7CA1B18
:10211000DB0B0FB6F894DEBF0FBECDBF09942A8843
:10212000398848885F846E847D848C849B84AA84EB
:10213000B984C884DF80EE80FD800C811B81AA8178
:10214000B981CE0FD11D0FB6F894DEBF0FBECDBF43
:10215000ED010895A29FB001B39FC001A39F700D30
:10216000811D1124911DB29F700D811D1124911D9F
:062170000895F894FFCF72
:10217600010000000000D5022000444154413A20ED
:1021860025630A0D005374617274696E6720535299
:10219600414D20746573742E2E2E0D00577269748E
:1021A60065207068617365206572726F723A20658A
:1021B60078745F72616D5B2534645D203D20253047
:1021C6003258202873686F756C642062652025304C
:1021D6003258290D0A0052657472696576616C2061
:1021E6007068617365206572726F723A20657874E3
:1021F6005F72616D5B2534645D203D202530325869
:10220600202873686F756C6420626520253032580B
:10221600290D0A005352414D207465737420636F73
:102226006D706C657465642077697468200D0A2585
:102236003464206572726F727320696E20777269DA
:10224600746520706861736520616E64200D0A25CF
:102256003464206572726F727320696E20726574C1
:1022660072696576616C2070686173650D0A0D0A86
:102276000054657374696E67206D656D6F727920A1
:10228600726567696F6E2041444300414443207480
:1022960065737420646F6E650054657374696E6748
:1022A600206D656D6F727920726567696F6E205358
:1022B60052414D005352414D207465737420646F32
:1022C6006E65006C696E652031006C696E65203242
:1022D600006C696E652033006C696E6520340043BE
:1022E600414E535441542061667465722072657381
:1022F60065743A203078253032580A004D43503202
:10230600353135206973204E4F5420696E20636F36
:102316006E66696775726174696F6E206D6F64654C
:0E232600206166746572207265736574210013
:00000001FF
