:100000000C9460030C94BC090C94CB090C947D03F4
:100010000C947D030C947D030C947D030C947D0360
:100020000C947D030C947D030C947D030C947D0350
:100030000C947D030C947D030C947D030C947D0340
:100040000C947D030C947D030C947D030C947D0330
:100050000C947D030C947D030C947D030C947D0320
:100060000C947D030C947D030C947D030C947D0310
:1000700000000000005C00000C000C007C287C28C4
:1000800058DC68002410480028542840000C000068
:10009000007884008478000054385400107C1000EC
:1000A00080400000101010000040000060100C00A4
:1000B00038543800487C40004864580044542C00B0
:1000C0001C107C005C5424003854240064140C0080
:1000D00068542C0048543800004800008048000054
:1000E0001028440028282800442810000454080040
:1000F00038445C00781478007C5428003844280088
:100100007C4438007C5444007C140400384474005F
:100110007C107C00447C440020403C007C106C003F
:100120007C4040007C187C0078103C00384438004B
:100130007C1408003844B8007C146800485424003B
:10014000047C04007C407C003C603C007C307C00F3
:100150006C106C000C700C0064544C00007C44006B
:100160000C106000447C00000804080080808000BF
:1001700000040800304878007C48300030484800CF
:1001800030487C00306850001078140090A8780047
:100190007C08700050744000808074007C106800FF
:1001A000447C4000781078007808700030483000B7
:1001B000F82810003048F80078100800505828003F
:1001C000083C4800384078003840380078207800F3
:1001D0004830480098A0780048685800107884009B
:1001E000007C00008478100008040804000000006F
:1001F0000000005F00000007000700147F147F1458
:10020000242A7F2A1223130864623649552250009B
:1002100005030000001C2241000041221C00082AA6
:100220001C2A0808083E080800503000000808088A
:100230000808006060000020100804023E51494593
:100240003E00427F400042615149462141454B31C9
:100250001814127F1027454545393C4A4949300159
:10026000710905033649494936064949291E0036B0
:100270003600000056360000000814224114141401
:10028000141441221408000201510906324979412F
:100290003E7E1111117E7F494949363E414141223E
:1002A0007F4141221C7F494949417F090901013EA3
:1002B000414151327F0808087F00417F41002040C2
:1002C000413F017F081422417F404040407F0204AB
:1002D000027F7F0408107F3E4141413E7F090909AA
:1002E000063E4151215E7F09192946464949493157
:1002F00001017F01013F4040403F1F2040201F7F00
:100300002018207F631408146303047804036151E8
:1003100049454300007F4141020408102041417FCC
:100320000000040201020440404040400001020479
:100330000020545454787F4844443838444444207E
:10034000384444487F3854545418087E0901020840
:100350001454543C7F0804047800447D400020403D
:10036000443D00007F10284400417F40007C041879
:1003700004787C0804047838444444387C14141409
:1003800008081414187C7C080404084854545420A9
:10039000043F4440203C4040207C1C2040201C3C2A
:1003A0004030403C44281028440C5050503C446499
:1003B000544C44000836410000007F0000004136E4
:1003C000080002010302010000000000000000001C
:1003D000065F5F0600000000070700070700001423
:1003E0007F7F147F7F1400242E6B6B3A120000462F
:1003F0006630180C666200307A4F5D377A48000428
:1004000007030000000000001C3E634100000000E4
:1004100041633E1C000000082A3E1C1C3E2A0808BE
:10042000083E3E0808000000A0E060000000000850
:100430000808080808000000006060000000006074
:1004400030180C060301003E7F594D7F3E000042EC
:10045000427F7F40400000627359496F660000226E
:100460006349497F360000181C16137F7F10002750
:100470006745457D3900003C7E4B497930000003DB
:100480006371190F070000367F49497F3600000667
:100490004F49693F1E000000006C6C000000000026
:1004A000A0EC6C00000000081C3663410000001442
:1004B00014141414140000004163361C08000002D8
:1004C0000351590F0600003E7F415D5D1F1E007CF9
:1004D0007E13137E7C0000417F7F49497F36001CDC
:1004E0003E634141632200417F7F41637F1C0041A5
:1004F0007F7F495D416300417F7F491D0103001CEF
:100500003E6341517372007F7F08087F7F000000C7
:10051000417F7F41000000307040417F3F0100413A
:100520007F7F081C776300417F7F41406070007FC0
:100530007F060C067F7F007F7F060C187F7F001CE4
:100540003E6341633E1C00417F7F49090F06001E48
:100550003F21717F5E0000417F7F19396F46002681
:10056000674D597B32000003417F7F410300007FCC
:100570007F40407F7F00001F3F60603F1F00007F83
:100580007F3018307F7F0063771C081C776300077B
:100590004F78784F0700006773594D47637100002B
:1005A0007F7F41410000000103060C18306000000D
:1005B00041417F7F000000080C0603060C08008004
:1005C000808080808080800000030704000000207D
:1005D0007454543C784000413F7F44447C38003898
:1005E0007C44446C280000307848493F7F40003804
:1005F0007C54545C180000487E7F49030200009838
:10060000BCA4A4F87C0400417F7F08047C7800002F
:10061000447D7D4000000040C484FD7D0000004119
:100620007F7F10386C440000417F7F400000007CD9
:100630007C0C180C7C78007C7C04047C78000038EE
:100640007C44447C38000084FCF8A4243C18001846
:100650003C24A4F8FC8400447C78441C1800004826
:100660005C54547424000000043E7F442400003C89
:100670007C40403C7C40001C3C60603C1C00003CDA
:100680007C6030607C3C00446C3810386C44009CCA
:10069000BCA0A0FC7C00004C64745C4C64000008AE
:1006A000083E7741410000000000777700000041DC
:1006B00041773E0808000002030103020301000025
:1006C00011241FBECFEFD4E0DEBFCDBF12E0A0E00B
:1006D000B1E0E4E0FFE102C005900D92A63CB10755
:1006E000D9F722E0A6ECB2E001C01D92A13DB2070D
:1006F000E1F70E947F030C94800F0C9400008FE1BF
:1007000090E00E94AC0362EC73E083EB93E00E9404
:10071000D50A0E94EC030E94B6040E948A060E9439
:100720008E060E9404092FEF3FE781E02150304000
:100730008040E1F700C000C0BD9AC59A90E288B33E
:10074000892788BB2FEF3FEF8EE02150304080405B
:10075000E1F700C00000F3CF90BD89B988E18AB904
:100760008EE880BD0895CF93C82F8A3039F05D9B05
:10077000FECFCCB990E080E0CF9108958DE00E944B
:10078000B303F5CF5F9BFECF8CB190E0089582E07C
:1007900086B987B991E09BBB2FE73AE196E02150FB
:1007A00030409040E1F700C0000017B82FE73AE171
:1007B00096E0215030409040E1F700C0000095E500
:1007C0009BBB2FE73AE196E0215030409040E1F7A3
:1007D00000C0000087B9089585B7806885BF80B7DD
:1007E000806280BF0895CF92DF92EF92FF920F93C5
:1007F0001F93CF93DF938AE091E00E94360B0E9413
:10080000C50A6C010E94CA0AD0E0C0E010E000E016
:100810000F2EF1E2EF2EF1E0FF2EF02D05C0219614
:10082000C11598E0D907F1F00E94C50AFE01F85EF3
:1008300080832081281799F399279F938F931F9284
:100840002F93DF93CF93FF92EF920E94200B0F5FC5
:100850001F4F8DB79EB708960FB6F8949EBF0FBE78
:100860008DBFDDCFC6010E94CA0AD0E0C0E0F12CE6
:10087000E12C0F2EFBE5CF2EF1E0DF2EF02D05C091
:100880002196C11598E0D907F1F00E94C50AFE0132
:10089000F85E20812817A1F399279F938F931F92C9
:1008A0002F93DF93CF93DF92CF920E94200B8FEF95
:1008B000E81AF80A8DB79EB708960FB6F8949EBF4F
:1008C0000FBE8DBFDDCFFF92EF921F930F9389E98B
:1008D00091E09F938F930E94200B0F900F900F90A9
:1008E0000F900F900F90DF91CF911F910F91FF907C
:1008F000EF90DF90CF900895CF93DF9386EF91E054
:100900000E94360BC0E0D0E185EA8883E7E9FAE38C
:100910003197F1F700C00000A096C115F8E1DF079C
:10092000A1F780E192E00E94360B8EE192E00E94F6
:10093000360B85EA8883E7E9FAE33197F1F700C0DF
:100940000000A096C115F0E2DF07A1F789E392E06D
:100950000E94360B2FE58AEE90E0215080409040B7
:10096000E1F700C00000DF91CF9108958D9A8FB517
:1009700081608FBD8EB588608EBD8FB580688FBD5C
:100980008FB58F7B8FBD8EB581608EBD8FE790E078
:100990009BBD8ABDB898C0980895CF93DF93CDB71B
:1009A000DEB728970FB6F894DEBF0FBECDBFE0E0EC
:1009B000F0E110824081209101108091031060913C
:1009C000021030E03A83298350E05C834B8370E06F
:1009D0007E836D8390E098878F833A815C817E81EE
:1009E000988528960FB6F894DEBF0FBECDBFDF9175
:1009F000CF910895EF92FF920F931F93CF93DF93C0
:100A0000CDB7DEB760970FB6F894DEBF0FBECDBF8F
:100A10008C017B010E94CD0429873A874B875C8734
:100A20006D877E878F87988BE985FA852B853C8536
:100A30002E153F05D4F12E193F0944E6429FC0010F
:100A4000439F900D112468EF70E06E197F090E949A
:100A5000100A462FF72EE017F107CCF598012E1B50
:100A60003F0B5CE95203C001539F900D1124B80164
:100A7000675471090E94100A9D853E858F852889DB
:100A80003E832887262F372F5F2D692F7E819885FB
:100A900060960FB6F894DEBF0FBECDBFDF91CF9149
:100AA0001F910F91FF90EF900895C701821B930B48
:100AB0009C014CE94203C001439F900D1124B701F2
:100AC000635471090E94100A462FF72EC4CFE01B11
:100AD000F10B24E62E9FC0012F9F900D112465EF8E
:100AE00070E0601B710B0E94100AC6CFCF93DF939A
:100AF000CDB7DEB728970FB6F894DEBF0FBECDBFD7
:100B000029833A834B835C8329813A818B819C8141
:100B1000833391058CF48E3C9F4FCCF081E090E0C4
:100B2000233331055CF42E3C3F4F1CF490E080E011
:100B300005C084E090E002C082E090E028960FB605
:100B4000F894DEBF0FBECDBFDF91CF91089583E053
:100B500090E0F4CF4F925F926F927F92AF92BF92EC
:100B6000CF92DF92EF92FF920F931F93CF93DF9379
:100B7000CDB7DEB760970FB6F894DEBF0FBECDBF1E
:100B800004E610E0412C512C3201F12CE12CD12C47
:100B9000C12CB12CA12C0E94CD0429873A874B8708
:100BA0005C876D877E878F87988B83EC99E00197B0
:100BB000F1F700C0000089859A85A80EB91E8B85C3
:100BC0009C85C80ED91E8D859E85E80EF91E8F85E1
:100BD0009889092E000CAA0BBB0B480E591E6A1EE1
:100BE0007B1E01501109B9F683EC99E00197F1F7EA
:100BF00000C0000083EC99E00197F1F700C000000D
:100C000024E630E0C501B9010E94100AB62E7A83AD
:100C1000C601B9010E94100A062F7C83C701B901E1
:100C20000E94100A162F7E83C301B20124E630E031
:100C300040E050E00E94240A822F38872F832B2D1A
:100C40003A81402F5C81612F7E81988560960FB636
:100C5000F894DEBF0FBECDBFDF91CF911F910F91F2
:100C6000FF90EF90DF90CF90BF90AF907F906F900C
:100C70005F904F90089587B3886187BB88B3886180
:100C800088BBBD9ABF9ABE988DB1837F8DB98DB157
:100C900081658DB908958FB9779BFECF08958FB97F
:100CA000779BFECF8FB108958FEF8FB9779BFECFE3
:100CB0008FB108959C014423E9F0FB01DC01415010
:100CC000CB010196480F592F511D8FEF05C031966A
:100CD0001196E417F50771F0982F2115310509F0E9
:100CE0009C919FB9779BFECF6115710581F39FB1F0
:100CF0009083EDCF089598B39A6198BB98B321E0A3
:100D000030E002C0220F331F8A95E2F72095292395
:100D100028BB089588B38A6188BB08950895FF921F
:100D20000F931F93CF93DF93009709F453C0EC0107
:100D300084E00E947B0684E00E944F068AE18A9547
:100D4000F1F700C080E00E944F06F82E83E08A95FC
:100D5000F1F7000080E00E944F06082F83E08A959B
:100D6000F1F7000080E00E944F06182F0E948A06CB
:100D70008881F0FA80F9F1FA81F9F2FA82F9F3FA4E
:100D800083F9F4FA84F9F5FA85F98883998100FBEF
:100D900090F901FB91F902FB92F903FB93F904FB33
:100DA00094F905FB95F906FB96F999838A8114FB62
:100DB00084F912FB82F913FB83F911FB81F910FB13
:100DC00080F98A8390E080E0DF91CF911F910F91AD
:100DD000FF9008958FEF9FEFF7CFCF93C82FC29862
:100DE00083E00E947B068C2F0E944B060E948A069D
:100DF000CF910895806B90E00E94ED060895CF9307
:100E0000C82F8F7090E00E94ED06C295CF70C06130
:100E10008C2F90E00E94ED06CF910895CF93C62FBE
:100E20000E94FA068C2F0E94FF06CF91089560E081
:100E300080E00E940E070895CF93C82FC29A83E0E6
:100E40000E947B0689EF90E00197F1F700C0000057
:100E50008C2F0E944B060E948A06CF910895CF9353
:100E6000DF930E941707D0E08D2F0E94FA06C0E0A2
:100E700080E00E941C07CF5FC038D1F7DF5FD83019
:100E800099F7DF91CF910895BA9A8EEA90E00E9487
:100E9000ED0681EA90E00E94ED0688EC90E00E9469
:100EA000ED0680E290E00E94ED0682E090E00E9474
:100EB000ED068FEA90E00E94ED060E942F070E9447
:100EC00017070895CF930E94FA0680E00E94FF065C
:100ED000C0E08C2F0E94FF0680E00E941C07CF5FBD
:100EE000C038B9F7CF9108950F931F93CF93DF9335
:100EF0008032D4F0C82F0C2E000CDD0BA097CE0151
:100F0000880F991F880F991FC0E7D0E0C80FD92F0D
:100F1000D11D8E010C5F1F4FFE0184910E941C07A2
:100F20002196C017D107C1F7DF91CF911F910F9183
:100F30000895CF93DF93EC018881882331F02196C7
:100F40000E94740789918111FBCFDF91CF910895A1
:100F5000CF93DF93D82FC0E06EE68C2F0E940E0750
:100F6000DC1749F080E20E947407CF5FC430A1F71C
:100F7000DF91CF9108958CE30E947407F6CFB89863
:100F80000E94170788E492E00E94990760E081E0E0
:100F90000E940E078FE492E00E94990760E082E0D1
:100FA0000E940E0786E592E00E94990760E083E0C8
:100FB0000E940E078DE592E00E94990708954F92D6
:100FC0005F926F927F928F929F92AF92BF92CF92D9
:100FD000DF92EF92FF920F931F93CF93DF93CDB7E2
:100FE000DEB728970FB6F894DEBF0FBECDBFC82E70
:100FF000A62E80E00E94A807712CB12CD12C55247C
:101000005394412C0F2EF8E68F2EF2E09F2EF02DF8
:101010001EC084E692E00E94360B83EC99E00197B3
:10102000F1F700C0000092E0971508F073941F924A
:101030007F929F928F920E94200B872D0E94A8077B
:101040000F900F900F900F90642C01C0652CB09BF7
:1010500036C0B501C6010E94FA0429833A834B8346
:101060005C836D837E838F83988783EC99E00197FF
:10107000F1F700C000007501860129813A814B819A
:101080005C816D817E818F8198850E947605E3EC7D
:10109000F9E03197F1F700C0000084309105B1F21A
:1010A0006620A9F28330910509F4B3CF029779F64F
:1010B00071107A94872D0E94A807642CC8CF872DC1
:1010C00028960FB6F894DEBF0FBECDBFDF91CF914B
:1010D0001F910F91FF90EF90DF90CF90BF90AF9056
:1010E0009F908F907F906F905F904F900895CF93D7
:1010F000C82FC19883E00E944B068C2F0E944B069C
:101100000E945406C19ACF910895CF93DF93D82FB0
:10111000C62FC19882E00E944B068D2F0E944B067D
:101120008C2F0E944B06C19ADF91CF910895833096
:1011300091057CF4C198009739F08130910551F008
:10114000029719F424E801C021E8822F0E944B067F
:10115000C19A089522E8F9CF1F93CF93DF93182FF8
:10116000D62FC42FC19885E00E944B06812F0E9484
:101170004B068D2F0E944B068C2F0E944B06C19A66
:10118000DF91CF911F910895C19880EC0E944B068A
:10119000C19A0895CF93B99AC19ABC9AC49ABB9A3E
:1011A000C39A0E943B060E94C40883EC99E0019711
:1011B000F1F700C000008EE00E947708C82F1F9250
:1011C0008F9386E792E09F938F930E94200BC07EBF
:1011D0000F900F900F900F9080E0C03829F083E9B6
:1011E00092E00E94360B81E0CF910895C19880EA89
:1011F0000E944B060E945406C19A0895482F60EE43
:101200008FE00E94AC0808950E94CA080E94C4089A
:1012100063E08AE20E94850860E989E20E9485080D
:1012200062E088E20E94850860E680E60E94850808
:1012300060E680E70E94850865E08BE20E948508F1
:1012400040E06FEF8CE20E94AC0880E40E94FE0850
:1012500008958A98929A85B7826085BF85B78E7FF8
:1012600085BF8BB780648BBF789408950F931F93CD
:10127000CF93DF93009709F440C0FC01228129300D
:1012800030F080E0DF91CF911F910F910895EC0134
:1012900080E30E94770883FF02C080E0F3CF0881DB
:1012A0001981B801769567957695679576956795D6
:1012B00081E30E948508602F6295660F607E82E35D
:1012C0000E9485086A816F7085E30E9485088A8183
:1012D000882369F010E0FE01E10FF11D638186E3D0
:1012E000810F0E9485081F5F8A811817A0F390E084
:1012F00080E00E94970881E0C5CF80E0C3CF0F93C4
:101300001F93CF93DF93009791F18C0181E60E94A8
:101310007708C82F82E60E9477082C2F30E0220F32
:10132000331F220F331F220F331F8295869587703C
:10133000282BF8013183208385E60E9477088F707F
:10134000F8018283882371F00D5F1F4FD6E6D80F16
:10135000C6E68C2F0E947708F80181938F01CF5F3A
:10136000CD13F7CF40E061E08CE20E94AC08DF9142
:10137000CF911F910F9108951F920F920FB60F9268
:1013800011248F9381E08093C6028F910F900FBE3E
:101390000F901F9018951F920F920FB60F92112465
:1013A0008F9381E08093C6028F910F900FBE0F90B4
:1013B0001F9018951F93CF93DF93CDB7DEB72B9770
:1013C0000FB6F894DEBF0FBECDBF8091C60281116B
:1013D0000AC02B960FB6F894DEBF0FBECDBFDF91CB
:1013E000CF911F9108951092C6028CE20E94770857
:1013F000182F80FD0AC012FD0DC011FFEACF40E09A
:1014000062E08CE20E94AC08E4CFCE0101960E941B
:101410007F09F1CF40E064E08CE20E94AC08EDCFA0
:1014200097FB072E16F4009407D077FD09D00E9491
:10143000430A07FC05D03EF4909581959F4F08958F
:10144000709561957F4F0895052E97FB1EF40094CB
:101450000E943B0A57FD07D00E94570A07FC03D0A1
:101460004EF40C943B0A50954095309521953F4F92
:101470004F4F5F4F089590958095709561957F4F80
:101480008F4F9F4F0895AA1BBB1B51E107C0AA1F96
:10149000BB1FA617B70710F0A61BB70B881F991F15
:1014A0005A95A9F780959095BC01CD010895A1E2C8
:1014B0001A2EAA1BBB1BFD010DC0AA1FBB1FEE1FCE
:1014C000FF1FA217B307E407F50720F0A21BB30B19
:1014D000E40BF50B661F771F881F991F1A9469F795
:1014E00060957095809590959B01AC01BD01CF01F1
:1014F00008958F929F92AF92BF92CF92DF92EF9218
:10150000FF92CF93DF93EC01688179818A819B817F
:10151000611571058105910521F464E279ED8BE592
:1015200097E02DE133EF41E050E00E94240A4901A9
:101530005A019B01AC01A7EAB1E40E94270F6B019D
:101540007C01ACEEB4EFA50194010E94350FDC01E3
:10155000CB018C0D9D1DAE1DBF1DB7FF03C00197B4
:10156000A109B04888839983AA83BB839F77DF91C1
:10157000CF91FF90EF90DF90CF90BF90AF909F9072
:101580008F9008950E94790A089580E091E00E946A
:10159000790A0895B0E0A0E08093000190930101E2
:1015A000A0930201B093030108950F931F93CF936B
:1015B000DF93009759F46115710541F4F0E0E0E024
:1015C000CF01DF91CF911F910F9108958B01EC0115
:1015D0006EE070E081E090E00E943B0DFC01892B01
:1015E00069F380E883830115110571F01387028781
:1015F00081E883838091C7029091C802892B21F4EE
:10160000F093C802E093C7022097D1F2D187C08738
:101610008381826083838091C9029091CA02892B61
:1016200079F6F093CA02E093C9028091CB029091BF
:10163000CC02892B29F6F093CC02E093CB02C0CFE9
:10164000B0E0A0E0E6E2FBE00C944A0FAE014B5F95
:101650005F4FFA0161917191AF018091C902909140
:10166000CA020E94610BE2E00C94660F0F931F9375
:10167000CF93DF93E091C902F091CA022381EC017C
:1016800010E000E021FD08C00FEF1FEF14C0099526
:10169000892B11F00FEF1FEF89916091C9027091B2
:1016A000CA02DB011896ED91FC918111F0CF8AE01E
:1016B0000995892B49F7C801DF91CF911F910F91AF
:1016C0000895ABE0B0E0E7E6FBE00C943A0F7C0154
:1016D0003B018A01FC0117821682838181FFC8C108
:1016E000CE0101965C01F7019381F30193FD859191
:1016F00093FF81913F01882309F453C1853239F466
:1017000093FD859193FF81913F01853229F4B701C3
:1017100090E00E94990EE7CF912C212C312CFFE113
:10172000F31538F08B3211F190F4803209F18332E5
:1017300029F137FC3CC020ED280F2A3050F536FE49
:1017400020C08AE0989E200D1124922E06C08D3272
:1017500091F0803371F7689430F8F30193FD85912F
:1017600093FF81913F018111DACF21C0689431F854
:10177000689432F8F2CF689433F8EFCF689434F875
:10178000ECCFEAE02E9E200D1124222E689435F82D
:10179000E4CF8E3229F436FC04C1689436F8DDCFEC
:1017A0008C3619F4689437F8D8CF8836B1F2982F70
:1017B0009F7D95549330E0F08336A1F18337C1F1DA
:1017C000833509F063C02801F2E04F0E511CF80187
:1017D000C080D180692D70E036FC02C06FEF7FEFD2
:1017E000C6010E947C0E4C01689437F882010AC041
:1017F0000C5F1F4FFFE3F98388248394912C6501CC
:10180000E89437F833FE2DC0522C8114910471F501
:10181000552009F468CFB70180E290E00E94990E4C
:101820005A94F6CFF801808189830E5F1F4FE4CF71
:101830002801F2E04F0E511CF801C080D180692DC3
:1018400070E036FC02C06FEF7FEFC6010E948E0E83
:101850004C018201D5CFB70180E290E00E94990E41
:101860002A942814190409F0B0F7CECFF60137FCFA
:10187000859137FE81916F01B70190E00E94990E2A
:1018800051105A94F1E08F1A9108BFCF843619F0A5
:10189000893609F077C0F80137FE6BC0608171812D
:1018A000828193810C5F1F4FF32DFF763F2E97FFB0
:1018B00009C090958095709561957F4F8F4F9F4F90
:1018C000689437F82AE030E0A5010E94C90EC82EBE
:1018D000CA188C2C432C36FE0CC0E89440F8C9146E
:1018E00040F434FE05C032FC03C0F32DFE7E4F2EC3
:1018F000892C44FE95C0FE01EC0DF11D80818033E2
:1019000009F087C0242D297E422E842D8870582E00
:1019100043FC95C040FE8FC09C2C821418F42C0C04
:10192000922C981844FE91C0B70180E390E00E9489
:10193000990E42FE09C088E790E041FE02C088E5AA
:1019400090E0B7010E94990EC91408F48AC0CA94A5
:10195000D12C9FEFC91AD90ACA0CDB1CF60182915F
:101960006F01B70190E00E94990EAC14BD04B1F76D
:101970004FCF60817181072E000C880B990B0E5F91
:101980001F4F92CFD32CE894D4F82AE030E085376B
:1019900039F1232D297FD22E8F3601F148F4883575
:1019A000A9F0F701868197812B96E2E10C94560FFE
:1019B000803749F08837A9F7D4FE02C06894D2F87E
:1019C00020E130E00DC06894D4F8F6CF34FE03C0B7
:1019D000822F8660D82E20E132E002C028E030E07D
:1019E000F801D7FE0FC060817181828193810C5F05
:1019F0001F4FA5010E94C90EC82ECA183D2CE8949D
:101A000037F867CF6081718190E080E00E5F1F4FF3
:101A1000F0CF42FC02C0839478CF8394839475CF37
:101A2000842D867809F471CFF6CFB70180E290E07B
:101A30000E94990E83948214C0F3512C73CF522CC0
:101A40005818821408F46ECFF8CF842D867809F4E4
:101A50007BCF8BE241FE80E247FC8DE2B70190E054
:101A600071CFB70180E390E00E94990E9A946CCFF9
:101A70008FEF9FEF99CF0F931F93CF93DF93869FA5
:101A80008001879F100D969F100D1124C8010E94A0
:101A9000570DEC01009729F0A80170E060E00E946A
:101AA000870ECE01DF91CF911F910F9108950F9373
:101AB0001F93CF93DF938230910510F482E090E082
:101AC000E091CF02F091D00230E020E0B0E0A0E061
:101AD000309799F42115310509F44AC0281B390BB8
:101AE00024303105D8F58A819B816115710589F112
:101AF000FB0193838283FE0111C0408151810281E9
:101B0000138148175907E0F04817590799F41097BF
:101B100061F012960C93129713961C933296CF0194
:101B2000DF91CF911F910F9108950093CF021093F1
:101B3000D002F4CF2115310551F04217530738F088
:101B4000A901DB019A01BD01DF01F801C1CFEF015D
:101B5000F9CF9093D0028093CF02CDCFFE01E20F58
:101B6000F31F819391932250310939832883D7CF72
:101B70002091CD023091CE02232B41F42091060119
:101B8000309107013093CE022093CD0220910401C1
:101B9000309105012115310541F42DB73EB7409133
:101BA000080150910901241B350BE091CD02F09101
:101BB000CE02E217F307A0F42E1B3F0B28173907BC
:101BC00078F0AC014E5F5F4F2417350748F04E0F99
:101BD0005F1F5093CE024093CD02819391939FCF8C
:101BE000F0E0E0E09CCFCF93DF930097E9F0FC01B9
:101BF000329713821282A091CF02B091D002ED01F0
:101C000030E020E01097A1F420813181820F931FF2
:101C10002091CD023091CE022817390709F061C01A
:101C2000F093CE02E093CD02DF91CF910895EA01C7
:101C3000CE17DF07E8F54A815B819E01411551050A
:101C4000B1F7E901FB83EA8349915991C40FD51F8C
:101C5000EC17FD0761F4808191810296840F951F36
:101C6000E90199838883828193819B838A83F0E051
:101C7000E0E012968D919C9113970097B9F52D9104
:101C80003C911197CD010296820F931F2091CD02B6
:101C90003091CE022817390739F6309751F5109256
:101CA000D0021092CF02B093CE02A093CD02BCCF4F
:101CB000D383C28340815181840F951FC817D907F0
:101CC00061F44E5F5F4F88819981480F591F51839E
:101CD00040838A819B81938382832115310509F09A
:101CE000B0CFF093D002E093CF029ECFFD01DC0194
:101CF000C0CF13821282D7CFFC0105906150704093
:101D00000110D8F7809590958E0F9F1F0895DC01E4
:101D100001C06D9341505040E0F70895FC016150BF
:101D2000704001900110D8F7809590958E0F9F1FFD
:101D300008950F931F93CF93DF93182F092FEB0173
:101D40008B8181FD09C01FEF0FEF812F902FDF9155
:101D5000CF911F910F91089582FF14C02E813F8172
:101D60008C819D81281739073CF4E881F981CF01E6
:101D700001969983888310838E819F8101969F832A
:101D80008E83E3CFE885F985812F0995892BA1F30F
:101D9000DACFFA01AA27283051F1203181F1E894F5
:101DA0006F936E7F6E5F7F4F8F4F9F4FAF4FB1E04E
:101DB0003ED0B4E03CD0670F781F891F9A1FA11D49
:101DC000680F791F8A1F911DA11D6A0F711D811D4A
:101DD000911DA11D20D009F468943F912AE0269F0F
:101DE00011243019305D3193DEF6CF010895462F6E
:101DF0004770405D4193B3E00FD0C9F7F6CF462F4F
:101E00004F70405D4A3318F0495D31FD40524193B7
:101E100002D0A9F7EACFB4E0A69597958795779574
:101E20006795BA95C9F700976105710508959B01FB
:101E3000AC010A2E06945795479537952795BA9584
:101E4000C9F7620F731F841F951FA01D08950E947C
:101E5000710FA59F900DB49F900DA49F800D911DB3
:101E600011240895B7FF0C94270F0E94270F821B9F
:101E7000930B08952F923F924F925F926F927F92B1
:101E80008F929F92AF92BF92CF92DF92EF92FF928A
:101E90000F931F93CF93DF93CDB7DEB7CA1BDB0B36
:101EA0000FB6F894DEBF0FBECDBF09942A883988DB
:101EB00048885F846E847D848C849B84AA84B984E2
:101EC000C884DF80EE80FD800C811B81AA81B981EE
:101ED000CE0FD11D0FB6F894DEBF0FBECDBFED0102
:101EE0000895A29FB001B39FC001A39F700D811DF3
:101EF0001124911DB29F700D811D1124911D089513
:041F0000F894FFCF83
:101F0400010000000000D102200053746172746962
:101F14006E67205352414D20746573742E2E2E0D1E
:101F24000057726974652070686173652065727208
:101F34006F723A206578745F72616D5B2534645DFD
:101F4400203D2025303258202873686F756C64203A
:101F540062652025303258290D0A00526574726971
:101F64006576616C207068617365206572726F724A
:101F74003A206578745F72616D5B2534645D203D41
:101F84002025303258202873686F756C6420626590
:101F94002025303258290D0A005352414D207465D2
:101FA400737420636F6D706C6574656420776974F5
:101FB40068200D0A253464206572726F727320697B
:101FC4006E20777269746520706861736520616E34
:101FD40064200D0A253464206572726F727320695F
:101FE4006E2072657472696576616C2070686173C5
:101FF400650D0A0D0A0054657374696E67206D657A
:102004006D6F727920726567696F6E204144430079
:10201400414443207465737420646F6E6500546595
:102024007374696E67206D656D6F72792072656770
:10203400696F6E205352414D005352414D207465D7
:10204400737420646F6E65006C696E652031006C7A
:10205400696E652032006C696E652033006C696EB0
:10206400652034006F7070006D656E755F706F73FE
:102074003A202564200043414E5354415420616664
:102084007465722072657365743A20307825303235
:10209400580A004D435032353135206973204E4F74
:1020A4005420696E20636F6E666967757261746926
:1020B4006F6E206D6F646520616674657220726551
:0620C400736574210000A9
:00000001FF
